:020000040800F2
:10000000B804002049010008050F0008070F000888
:100010000B0F00080F0F0008130F0008000000006E
:10002000000000000000000000000000170F0008A2
:10003000190F0008000000001B0F00081D0F00082A
:100040006301000863010008630100086301000800
:1000500063010008630100086301000863010008F0
:1000600063010008630100086301000863010008E0
:1000700063010008630100086301000863010008D0
:1000800063010008630100086301000863010008C0
:1000900063010008630100086301000863010008B0
:1000A00063010008630100086301000863010008A0
:1000B0006301000863010008630100086301000890
:1000C0006301000863010008630100086301000880
:1000D0006301000863010008630100086301000870
:1000E0006301000863010008630100086301000860
:1000F0006301000863010008630100086301000850
:10010000630100086301000863010008630100083F
:10011000630100086301000863010008630100082F
:10012000630100086301000863010008630100081F
:10013000DFF810D004F07CFF00480047550E00089F
:10014000AFF30080B8040020064880470648004707
:10015000FEE7FEE7FEE7FEE7FEE7FEE7FEE7FEE777
:10016000FEE7FEE74B020008310100080CB5002055
:10017000019000906C48006840F480306A49086043
:1001800000BF6948006800F4003000900198401CEE
:100190000190009818B90198B0F5A06FF1D16248AC
:1001A000006800F4003010B10120009001E0002050
:1001B00000900098012843D15C48006840F010008E
:1001C0005A4908600846006820F0030008600846A5
:1001D000006840F002000860534840685249486097
:1001E0000846406848600846406840F480604860BF
:1001F0000846406820F47C1048600846406840F497
:10020000E81048600846006840F08070086000BF51
:100210004548006800F000700028F9D04248406866
:1002200020F00300404948600846406840F0020062
:10023000486000BF3C48406800F00C000828F9D135
:100240000CBD10B5FFF792FF10BD10B53648006821
:1002500040F00100344908600846406834490840CD
:100260003149486008460068324908402E49086014
:100270000846006820F4802008600846406820F4A2
:10028000FE0048604FF41F008860FFF7DAFF4FF070
:1002900000602949086010BD10B50021002000222F
:1002A000214B5B6803F00C0121B1042906D0082919
:1002B00028D107E0214B224C236027E01F4B204C24
:1002C000236023E0184B5B6803F47010164B5B68E7
:1002D00003F48032022303EB904022B9194B4343CD
:1002E000174C23600DE0104B5B6803F4003323B11F
:1002F000144B4343124C236003E0104B4343104C18
:10030000236003E00D4B0E4C236000BF00BF064B83
:100310005B68C3F303130C4CE15C094B1B68CB40D7
:10032000074C236010BD0000001002400020024076
:100330000000FFF8FFFFF6FE08ED00E000127A0073
:100340000000002000093D000400002010B5044614
:10035000CC48844208D10121042000F02DFB00216B
:10036000042000F029FB46E0C748844208D101215F
:10037000082000F021FB0021082000F01DFB3AE0DE
:10038000C248844208D10121102000F015FB002151
:10039000102000F011FB2EE0BD48844208D101215D
:1003A000202000F009FB0021202000F005FB22E0C6
:1003B000B848844208D10121402000F0FDFA002114
:1003C000402000F0F9FA16E0B348844208D1012138
:1003D000802000F0F1FA0021802000F0EDFA0AE020
:1003E000AE48844207D10121801500F0E5FA0021D2
:1003F000A01500F0E1FA10BD10B50121084600F08B
:10040000DBFA0021012000F0D7FA10BD2DE9F04100
:10041000024600250026002000230024002791F832
:1004200003C00CF00F0591F803C00CF0100CBCF1E8
:10043000000F03D091F802C04CEA050591F800C006
:10044000BCF1000F31D0146800202BE04FF0010CFC
:100450000CFA00F3B1F800C00CEA03069E4220D16A
:1004600083004FF00F0C0CFA03F7BC4305FA03FCB2
:100470004CEA040491F803C0BCF1280F06D14FF0F8
:10048000010C0CFA00FCC2F814C00AE091F803C099
:10049000BCF1480F05D14FF0010C0CFA00FCC2F87A
:1004A00010C0401C0828D1D31460B1F800C0BCF1C2
:1004B000FF0F34DD546800202EE000F1080C4FF0EF
:1004C000010808FA0CF3B1F800C00CEA03069E42DA
:1004D00021D183004FF00F0C0CFA03F7BC4305FA4F
:1004E00003FC4CEA040491F803C0BCF1280F05D1C9
:1004F00000F1080C08FA0CF8C2F8148091F803C057
:10050000BCF1480F07D100F1080C4FF0010808FAC0
:100510000CF8C2F81080401C0828CED35460BDE807
:10052000F0814FF6FF710180022181700421C170BA
:1005300070470246002093680B400BB1012000E099
:10054000002070470146886880B27047024600204C
:10055000D3680B400BB1012000E00020704701463A
:10056000C86880B2704701617047416170470AB145
:10057000016100E041617047C16070474FF4803213
:100580000A438261816182618269826970470246A1
:100590000020434B18684FF68073184040EA021061
:1005A00008433F4B186070473E49C8617047F0B53B
:1005B0000A46002300240021002500F00046B6F181
:1005C000004F02D1364EF16901E0354E7168C0F33B
:1005D000034583B200F44016B6F5401F08D121F060
:1005E00070612F4E766826F070662D4F7E6012E0A7
:1005F00000F48016B6F5801F06D1032606FA05F42E
:10060000A14341F0706106E0460D360103FA06F69B
:10061000B14341F0706122B1460D360103FA06F68E
:10062000314300F00046B6F1004F02D11C4EF1619B
:1006300001E01B4E7160F0BD30B500228B071C0F2E
:100640000F2303FA04F2164B08338C1053F82430AE
:100650009343134C08348D1044F8253023468C10F6
:1006600053F824308C07240F00FA04F423430C4C75
:1006700008348D1044F8253030BD0A49DC3108605B
:100680007047000000080140000C014000100140CC
:100690000014014000180140001C014000200140EE
:1006A0000000014000002042DF48006840F00100E7
:1006B000DD49086008464068DC490840DA4948607E
:1006C00008460068DA490840D749086008460068CB
:1006D00020F4802008600846406820F4FE0048604E
:1006E0004FF41F0088607047CF49096821F48031BA
:1006F000CD4A11601146096821F480211160B0F5DE
:10070000803F03D0B0F5802F0ED106E0C6490968BE
:1007100041F48031C44A116007E0C349096841F4DB
:10072000A021C14A116000E000BF00BF704710B5B2
:1007300001460022002300204A11012A02D1BA4CAE
:10074000236806E0022A02D1B74C236A01E0B64CC6
:10075000636A01F01F02012494401C400CB1012087
:1007600000E0002010BD38B50020009000240025D6
:1007700000BF3120FFF7DBFF05460098401C0090CA
:100780000098B0F5A06F01D0002DF2D03120FFF716
:10079000CEFF08B1012400E00024204638BD014608
:1007A0000020A14A106820F0F80040EAC100106063
:1007B0007047A04908607047024600209A4B58686D
:1007C00020F47C1042EA01031843974B58607047AD
:1007D00098490866704701460020934A506820F007
:1007E00003000843506070478F48406800F00C00D9
:1007F0007047014600208C4A506820F0F000084302
:100800005060704701460020874A506820F4E0603D
:1008100008435060704701460020834A506820F426
:10082000605040EAC1005060704729B17E4A527A58
:1008300002437D4B5A7204E07B4A527A82437A4BE0
:100840005A7270477B49D8310860704701460020D2
:10085000754A506820F440400843506070470021BA
:10086000714A20321170704A82F82010012802D09B
:1008700004280AD104E001216B4A2032117005E0FE
:100880000521694A2032117000E000BF00BF7047A7
:100890006949086070476449096A0143624A116204
:1008A0007047654944390860704730B5002100221F
:1008B000002400235C4D6D6805F00C0121B1042972
:1008C00005D0082923D105E05C4D056022E05B4D91
:1008D00005601FE0544D6D6805F47012524D6D684F
:1008E00005F48034022505EB92421CB9544D554362
:1008F00005600BE04C4D6D6805F400351DB1504DA1
:100900005543056002E04D4D5543056002E04B4DF7
:10091000056000BF00BF444D6D6805F0F001090996
:10092000484D6B5C0568DD4045603F4D6D6805F4E2
:10093000E061090A434D6B5C4568DD4085603A4DD6
:100940006D6805F46051C90A3E4D6B5C4568DD4039
:10095000C560354D6D6805F44041890B3A4D6B5CBF
:10096000C568B5FBF3F5056130BD29B12E4A526962
:1009700002432D4B5A6104E02B4A526982432A4BB1
:100980005A61704729B1284A92690243264B9A61FD
:1009900004E0254A92698243234B9A61704729B14A
:1009A000214AD2690243204BDA6104E01E4AD2692F
:1009B00082431D4BDA61704729B11B4AD26802435A
:1009C000194BDA6004E0184AD2688243164BDA60A9
:1009D000704729B1144A12690243134B1A6104E0AB
:1009E000114A12698243104B1A617047124940390B
:1009F000086070470F49C86470470B49C871704759
:100A00000948406A40F080700749486270470146D3
:100A10000020054A92680A400AB1012000E0002047
:100A20007047014988727047001002400000FFF8CB
:100A3000FFFFF6FE000042428004424200127A00AC
:100A400000093D00140000202400002010B50446D9
:100A5000FB48844209D101218803FFF7ADFF002143
:100A60004FF48040FFF7A8FF32E0F648844209D1F6
:100A700001214804FFF7ADFF00214FF40030FFF7DC
:100A8000A8FF25E0F048844209D101218804FFF73E
:100A9000A0FF00214FF48020FFF79BFF18E0EB48F8
:100AA000844209D10121C804FFF793FF00214FF4CC
:100AB0000020FFF78EFF0BE0E548844208D10121BA
:100AC0000805FFF786FF00214FF48010FFF781FF34
:100AD00010BD2DE9F04786B005460E460024A2461B
:100AE00000BFA1460027B08900B100BF2F462C8A65
:100AF0004CF6FF700440F08804432C82AC894EF61B
:100B0000F3100440B08831890843718908430443D5
:100B1000AC81AC8A4FF6FF400440B0890443AC82FC
:100B200001A8FFF7C2FEC648874202D1DDF810A037
:100B300001E0DDF80CA0A88900F4004040B10AEB08
:100B4000CA0000EB0A1031684900B0FBF1F807E079
:100B50000AEBCA0000EB0A1031688900B0FBF1F81B
:100B60006420B8FBF0F004012009642101FB108926
:100B7000A88900F4004040B1322000EBC900B0FB6E
:100B8000F1F000F00700044308E0322000EB091008
:100B90006421B0FBF1F000F00F0004432C8106B09B
:100BA000BDE8F0874FF41651016000218180C180BB
:100BB00001810C21418100218181704710B50246DD
:100BC0000020108A4FF2FF0318400B884C88234303
:100BD0008C882343CC8823431843108210BD002106
:100BE000018041808180C180704721B1828942F4B7
:100BF0000052828104E082894DF6FF731A4082819F
:100C00007047F0B50346002400260025002040F67A
:100C10006A17B94200D100BF1846C1F3421401F06F
:100C20001F06012707FA06F5012C01D10C3004E05C
:100C3000022C01D1103000E014301AB107682F43A4
:100C4000076002E00768AF430760F0BD1AB1838A0E
:100C50000B43838202E0838A8B4383827047028A3C
:100C60004FF6F0731A400282028A0A4302827047EA
:100C700082894FF2FF731A40828182890A438281FE
:100C8000704721B1828942F00202828104E08289A8
:100C90004FF6FD731A4082817047028A4FF6DF7368
:100CA0001A400282028A0A430282704721B1028AF4
:100CB00042F48042028204E0028A4BF6FF731A403B
:100CC00002827047C1F3080282807047014688881B
:100CD000C0F308007047818941F0010181817047AC
:100CE000028BD2B20283028B42EA01220283704756
:100CF000028B02F47F420283028B0A430283704715
:100D000021B1828A42F02002828204E0828A4FF678
:100D1000DF731A408282704721B1828A42F010024A
:100D2000828204E0828A4FF6EF731A408282704713
:100D300021B1828A42F00802828204E0828A4FF660
:100D4000F7731A408282704721B1828942F40042CF
:100D5000828103E08289C2F30E028281704721B151
:100D6000828A42F40062828204E0828A4FF2FF7338
:100D70001A4082827047828A4FF6FB731A40828241
:100D8000828A0A438282704721B1828A42F002023B
:100D9000828204E0828A4FF6FD731A408282704795
:100DA00002460020B1F5007F00D100BF13880B4040
:100DB0000BB1012000E00020704701F40072B2F591
:100DC000007F00D100BFCA430280704770B5024661
:100DD000002400230025002040F66A16B14200D10D
:100DE00000BFC1F3421501F01F03012606FA03F309
:100DF000012D02D19689334006E0022D02D1168AD8
:100E0000334001E0968A33400C12012606FA04F4BE
:100E10001688344013B10CB1012000E0002070BDF1
:100E200010B50022002340F66A14A14200D100BF91
:100E30000A1201249440A3B2DC43048010BD0000D8
:100E4000003801400044004000480040004C004091
:100E50000050004088B000F07BF84FF0E0200069BF
:100E600040F001004FF0E021086100F025FC00F0A7
:100E70001BFA00F0CBF800F062F912A004F06CF954
:100E800003F049FC1CE005AA06A907A803F033FB00
:100E9000B0B9059803F039FE04460D46069803F0F4
:100EA00034FE06460F46079803F02FFE8046424662
:100EB0000B460DA0CDE90067CDE9024504F04CF9E1
:100EC000E1E700000D0A20D5E2CAC7D2BBB8F64D53
:100ED0005055363035305F444D50B2E2CAD4C0FD73
:100EE000B3CC200D0A00000070697463683A25666F
:100EF000092C726F6C6C3A2566092C7961773A255A
:100F0000660D0A00704700BFFEE700BFFEE700BFA6
:100F1000FEE700BFFEE770477047704710B500F06E
:100F20005BF800F062F800240CE0084850F8240058
:100F300030B1064850F82400401E044941F824000E
:100F4000601CC4B2022CF0DB10BD000028000020A1
:100F500030B5294800684FF47A72B0FBF2F1B1F174
:100F6000807F01D301201DE021F07F40401E4FF023
:100F7000E022506150170F22002807DA13071D0ED8
:100F80001E4B00F00F04241F1D5503E013071C0E19
:100F90001B4B1C5400BF00204FF0E0229061072043
:100FA0001061002008B100BFFEE74FF0E0200069AB
:100FB00020F001004FF0E021086130BD11490860C8
:100FC00000BF104909680029FBD1704701460E484F
:100FD00000680860002070470A48006820B109488E
:100FE0000068401E07490860704707480068401CB9
:100FF00005490860704700000000002018ED00E07F
:1010000000E400E034000020300000201CB5002087
:10101000009000BF8020019001AB01226B2168206D
:1010200000F024FA3220FFF7C9FF0120019001AB44
:1010300001226B21682000F019FA6B46012275210C
:10104000682000F006FB9DF8000000F07E00009094
:101050009DF800106FA004F07FF89DF8000068284C
:1010600000D0D7E70020019001AB012219216820B0
:1010700000F0FCF901AB01221A21682000F0F6F91A
:101080000020019001AB01221B21682000F0EEF945
:1010900001AB01221C21682000F0E8F91CBD10B54D
:1010A0005E4B0E223B21682000F0D3FA5B4840786B
:1010B0005A49097800EB012059490988401A00B2C1
:1010C000584908805548C0785449897800EB012078
:1010D00055490988401A00B2544908804F48407960
:1010E0004E49097900EB012051490988401A00B2A4
:1010F000504908804948407A4849097A00EB012064
:101100004D490988401A00B24C4908804348C07ACA
:101110004249897A00EB012049490988401A00B206
:10112000484908803D48407B3C49097B00EB012051
:1011300045490988401A00B24449088010BD10B5DD
:1011400086B01821684603F053FB00242AE00A20E9
:10115000FFF734FFFFF7A3FF3249B1F90010009801
:10116000084400903149B1F90010019808440190F9
:101170003049B1F900100298084402902F49B1F9A2
:1011800000100398084403902E49B1F90010049808
:10119000084404902D49B1F90010059808440590C1
:1011A000601C84B2802CD2DB0098C11700EB516127
:1011B000C91109B21A4A11800198C11700EB516197
:1011C000C91109B2184A11800298C11700EB516188
:1011D000C911A1F57C51FF3909B2154A1180039854
:1011E000C11700EB5161C91109B2134A118004986B
:1011F000C11700EB5161C91109B2114A118005985C
:10120000C11700EB5161C91109B20F4A118006B034
:1012100010BD000025640D0A0000000098000020A9
:101220004400002038000020460000203A00002042
:10123000480000203C0000204A0000203E00002022
:101240004C000020400000204E0000204200002002
:1012500000BF411E081EFCD1704708B501210820BF
:10126000FFF790FB4FF44070ADF8000002208DF8BE
:10127000020014208DF803006946FE48FFF7C6F807
:101280004FF48071FB48FFF76EF94FF40071F94895
:10129000FFF769F9F848FFF7DBFFF8A003F05CFF00
:1012A00008BDF9490880704710B50520FFF7F9FF20
:1012B00000BF00BFFFF7D1FF10BD10B54FF40071A4
:1012C000EC48FFF752F90A20FFF7C2FF4FF4807194
:1012D000E848FFF748F90A20FFF7BAFF4FF400711A
:1012E000E448FFF740F90A20FFF7B2FF10BD10B540
:1012F00000244FF40071DF48FFF735F90A20FFF7AB
:10130000A7FF4FF48071DB48FFF72DF90A20FFF7A4
:101310009FFF07E0601CC4B2FA2C03DDFFF7CDFF8E
:10132000022010BD4FF40071D248FFF702F90028E7
:10133000F0D14FF48071CF48FFF717F90020F0E7A4
:1013400070B504464FF48071CA48FFF70EF90025C6
:1013500024E004F0800028B14FF40071C548FFF785
:1013600002F904E04FF40071C248FFF7FEF860068E
:10137000040E0A20FFF76CFF4FF48071BD48FFF7A1
:10138000F2F80A20FFF764FF4FF48071B948FFF7C5
:10139000ECF80A20FFF75CFF681CC5B2082DD8DB0B
:1013A000FFF7A5FF70BD10B54FF40071B148FFF70E
:1013B000DAF80A20FFF74CFF4FF48071AD48FFF7D1
:1013C000D2F80A20FFF744FF4FF40071A948FFF755
:1013D000B0F808B9012010BD4FF40071A548FFF71F
:1013E000C4F80A20FFF734FF4FF48071A148FFF7DB
:1013F000BCF80A20FFF72CFF4FF400719D48FFF75F
:1014000098F808B10220E6E70020E4E72DE9F0476C
:1014100006460F46904699460025FFF7C4FF002177
:1014200041EA4601C8B2FFF78BFF054615B12846D1
:10143000BDE8F0873846FFF783FF05460DB1284623
:10144000F6E7002409E019F80400FFF779FF0546E4
:101450000DB12846ECE7601CC4B24445F3DBFFF74E
:101460002CFF0020E4E78848008870472DE9F0470A
:1014700007468846144699464FF0000A0025FFF7B4
:10148000F2FF064600BF0025E2B24B464146384611
:10149000FFF7BCFF05466DB166B15046411C01F037
:1014A000FF0A042802DD2846BDE8F0873046FFF732
:1014B00085FDE8E72846F7E710B54FF400716D4861
:1014C000FFF753F80A20FFF7C3FE4FF48071694815
:1014D000FFF749F80A20FFF7BBFE4FF4807165481B
:1014E000FFF743F80A20FFF7B3FE10BD70B54FF4C5
:1014F00000716048FFF737F84FF480715D48FFF7DF
:1015000034F8002400251BE04FF480715948FFF7A0
:101510002AF80A20FFF79CFE6006040E4FF40071C3
:101520005448FFF706F808B144F001044FF4807105
:101530005048FFF71AF80A20FFF78AFE681CC5B268
:10154000082DE1DBFFF7B8FF204670BD10B54FF462
:1015500000714848FFF707F80A20FFF779FE4FF4BB
:1015600080714448FEF7FFFF0A20FFF771FE4FF439
:1015700080714048FEF7F9FF0A20FFF769FE10BDB1
:1015800070B54FF400713B48FEF7EDFF4FF48071EA
:101590003848FEF7EAFF002400251BE04FF4807175
:1015A0003448FEF7E0FF0A20FFF752FE6006040E03
:1015B0004FF400712F48FEF7BCFF08B144F001045E
:1015C0004FF480712B48FEF7D0FF0A20FFF740FE52
:1015D000681CC5B2082DE1DBFFF7B8FF204670BDDF
:1015E0002DE9F0410746884614461D46FFF7DBFE0D
:1015F000002141EA4701C8B2FFF7A2FE064616B134
:101600003046BDE8F0814046FFF79AFE06460EB12F
:101610003046F6E7FFF7C7FE012101EB4701C8B2EC
:10162000FFF78EFE06460EB13046EAE70BE0012CCE
:1016300003D1FFF7A5FF287002E0FFF757FF2870DE
:101640006D1C601EC4B2002CF1D1FFF736FE0020E5
:10165000D7E72DE9F04707468846144699464FF0EC
:10166000000A0025FFF7FFFE064600BF0025E2B294
:101670004B460BE0000C0140A0860100736F6674BE
:10168000206969630A000000540000204146384682
:10169000FFF7A6FF05466DB166B15046411C01F04B
:1016A000FF0A042802DD2846BDE8F0873046FFF730
:1016B00085FCDBE72846F7E700B585B0012104206B
:1016C000FFF760F901218803FFF75CF94FF4007020
:1016D000ADF8100018208DF8130003208DF81200CB
:1016E00004A92248FEF792FE4FF48060ADF8100086
:1016F00004208DF8130004A91C48FEF787FE4FF460
:10170000E13000900020ADF80400ADF80600ADF81F
:101710000800ADF80C000C20ADF80A00694614482A
:10172000FFF7D7F901211248FFF75FFA05B000BDB6
:1017300070B504460D46E1B20D48FFF7C3FA00BF8D
:1017400080210B48FFF72CFB0028F9D0204670BD04
:1017500010B5044600BF20210548FFF721FB0028F3
:10176000F9D00348FFF7B2FA10BD000000080140AD
:101770000038014038B50446FC4890F82400C0B158
:1017800014B10220009001E000200090F74A126896
:10179000517CF64A526810786B460122FFF766FECC
:1017A00010B14FF0FF3038BD9DF80010EF48417484
:1017B00023E0EE48807A10B94FF0FF30F3E724B110
:1017C000EA48407C08B10020EDE714B10120009008
:1017D00001E000200090E54A1268517CE34A52681B
:1017E00010786B460122FFF741FE10B14FF0FF3039
:1017F000D9E79DF80010DD4841740020D3E738B5E3
:1018000000241BE0D9480068407BA04204D0D748A0
:101810000068007EA04200D10EE0D44949680878F3
:101820006B4601222146FFF714FF10B14FF0FF3045
:1018300038BD00BF00BF00BF601CC4B2CB484068C9
:101840000079A042DEDC0020F2E770B504460D46C8
:10185000C6480068407BA04204D0C4480068007EAF
:10186000A04202D14FF0FF3070BDC04840680079FF
:10187000A04202DC4FF0FF30F6E7BC494968087827
:101880002B4601222146FFF7E4FEEDE738B504467A
:10189000B64890F82300A04201D1002038BD14B111
:1018A0003020009001E000200090B048807C20B102
:1018B0009DF8000040F002000090AC4890F8220033
:1018C00020B19DF8000040F080000090A74A126807
:1018D000D17DA64A526810786B460122FFF7C6FDFB
:1018E00010B14FF0FF30D9E7A04880F82340002026
:1018F000D4E738B5044604F0700010B10120009020
:1019000005E014B10020009001E040200090974ACB
:101910001268517D954A526810786B460122FFF794
:10192000A5FD20B1002191488172481E38BD9DF867
:10193000000020F040018D4801730020009004F069
:10194000400020B99DF8000040F00400009004F031
:10195000200020B99DF8000040F00200009004F043
:10196000100020B99DF8000040F00100009004F044
:10197000080020B99DF8000040F0380000907B4A34
:101980001268917D794A526810786B460122FFF700
:101990006DFD20B1002175488172481EC6E724B153
:1019A000082C02D00020FFF771FF704884720021DC
:1019B00001753220FFF702FB0020B7E738B5044677
:1019C0006A48807CA04201D1002038BD002C46D05E
:1019D000664A12681179654A526810786B4601228E
:1019E000FFF737FE10B14FF0FF30EEE79DF8000033
:1019F00020F0200000905D4A126811795B4A52681D
:101A000010786B460122FFF731FD10B14FF0FF3027
:101A1000DBE70320FFF7D2FA02200090534890F84A
:101A2000220020B19DF8000040F0800000904F4857
:101A300090F8230020B19DF8000040F030000090A5
:101A40004A4A1268D17D494A526810786B46012291
:101A5000FFF70CFD002851D04FF0FF30B5E7434AA7
:101A600012681179414A526810786B460122FFF7DB
:101A7000F0FD10B14FF0FF30A7E73C48807A00F04E
:101A8000010028B19DF8000040F02000009004E023
:101A90009DF8000020F020000090344A126811796F
:101AA000324A526810786B460122FFF7DFFC10B112
:101AB0004FF0FF3089E70320FFF780FA2B4890F8BA
:101AC000220010B18020009001E000200090274803
:101AD00090F8230020B19DF8000040F03000009005
:101AE000224A1268D17D214A526810786B46012241
:101AF000FFF7BCFC10B14FF0FF3066E71B48847461
:101B0000002062E708B51948807A10B94FF0FF301D
:101B100008BD00200090154A1268517C134A526893
:101B200010786B460122FFF7A1FC10B14FF0FF3097
:101B3000EEE70E4A126851790C4A526810786B46EB
:101B40000122FFF793FC10B14FF0FF30E0E7074AA6
:101B500012681179054A526810786B460122FFF726
:101B600085FC28B14FF0FF30D2E70000580000207C
:101B7000F74890F82400002853D00C200090F44A35
:101B800012681179F24A526810786B460122FFF709
:101B90006DFC10B14FF0FF30BAE73220FFF70EFABC
:101BA000C0200090EA48807A00F0010020B19DF842
:101BB000000040F020000090E54A12681179E44AE4
:101BC000526810786B460122FFF750FC10B14FF0BD
:101BD000FF309DE7DE48407C10B10220009001E01C
:101BE00000200090DA4A1268517CD94A5268107875
:101BF0006B460122FFF73AFC10B14FF0FF3087E748
:101C000000200090D24A12685179D14A5268107867
:101C10006B460122FFF72AFC002855D04FF0FF3019
:101C200076E704200090CA4A12681179C84A5268BF
:101C300010786B460122FFF719FC10B14FF0FF300E
:101C400066E7C348807C20B9C148807A00F0010073
:101C500010B94020009001E060200090BC4A12685A
:101C60001179BB4A526810786B460122FFF7FEFBE0
:101C700010B14FF0FF304BE73220FFF79FF9B44827
:101C8000407C10B10120009001E000200090B04A9B
:101C90001268517CAE4A526810786B460122FFF7F9
:101CA000E5FB10B14FF0FF3032E7A94A12685179D5
:101CB000A74A52681078A64B10330122FFF7D6FBD3
:101CC00010B14FF0FF3023E7002021E770B5044644
:101CD000002624F001049E4890F8240008B100205A
:101CE00070BD9B48807A10B94FF0FF30F8E79848F4
:101CF000057C807A2040964908740846007CA04202
:101D000002D04FF0FF3600E0002614B99048007D65
:101D100018B10120FFF72EFD02E00020FFF72AFD99
:101D20003CB1FFF7EFFE20B1894805744FF0FF305A
:101D3000D6E73046D4E738B504468548807A10B9EE
:101D40004FF0FF3038BDBC2C02DB0120009015E0C5
:101D5000622C02DB0220009010E02A2C02DB032020
:101D600000900BE0142C02DB0420009006E00A2C0B
:101D700002DB0520009001E0062000907448C07A44
:101D80009DF80010884201D10020DBE7704A1268FC
:101D900091786F4A526810786B460122FFF766FB14
:101DA00010B14FF0FF30CDE79DF800106848C172C8
:101DB0000020C7E738B50446282C02DD4FF0FF307D
:101DC00038BDDCB90020FFF761FD00208DF8000070
:101DD00007208DF801005E4A1268517D5C4A526806
:101DE00010786B460222FFF741FB10B14FF0FF3035
:101DF000E6E70021564801750020E1E70120FFF7E2
:101E000045FD20208DF80000012C06D100208DF822
:101E100001000520FFF78FFF17E0052C06DC0120ED
:101E20008DF801000520FFF786FF0EE0142C06DC7C
:101E300002208DF801000A20FFF77DFF05E0032056
:101E40008DF801001420FFF776FF9DF801000721AF
:101E500001EB8010C0B28DF801003D4A1268517D3F
:101E60003B4A526810786B460222FFF7FFFA10B126
:101E70004FF0FF30A4E7082135488172002101733B
:101E8000012101750020FFF721FF002098E738B5F8
:101E900004462F48807A10B94FF0FF3038BD2C48E7
:101EA00090F8240010B14FF0FF30F7E72848007D8C
:101EB00050B134B1282C04DCE0B2FFF77BFF0020E6
:101EC000ECE70020FFF776FF042C01DA042404E09D
:101ED000B4F57A7F01DD4FF47A744FF47A7090FB99
:101EE000F4F0401EC0B20090194A12685178184AA6
:101EF000526810786B460122FFF7B8FA10B14FF024
:101F0000FF30CBE79DF80000401C4FF47A7191FB45
:101F1000F0F081B20E48C1810146C9894810FFF72F
:101F20000AFF0020BAE738B504460948807A10B99C
:101F30004FF0FF3038BD022C06D0042C0AD0082CFC
:101F40000BD0102C0FD10BE0002000900EE0000011
:101F5000580000200820009008E01020009005E0C4
:101F60001820009002E04FF0FF30E3E700BFF74891
:101F7000407A9DF80010B0EBE10F01D10020D9E7C5
:101F8000F24A1268D179F14A526810786B46012200
:101F9000FFF76CFA10B14FF0FF30CBE79DF800006F
:101FA000C110EA4841720020C4E738B50446E7484A
:101FB000807A10B94FF0FF3038BDFA2C09D0B4F553
:101FC000FA7F09D0B4F57A7F09D0B4F5FA6F0CD155
:101FD00008E0002000900BE00820009008E01020AE
:101FE000009005E01820009002E04FF0FF30E3E79A
:101FF00000BFD648007A9DF80010B0EBE10F01D188
:102000000020D9E7D14A12689179D04A52681078F5
:102010006B460122FFF72AFA10B14FF0FF30CBE7F1
:102020009DF80000C010C94908720020C4E77CB5C3
:10203000054680208DF80000C44A1268517DC34ACD
:10204000526810786B460122FFF710FA10B14FF07A
:10205000FF307CBD6420FEF7B1FF00208DF800004A
:10206000BA4A1268517DB94A526810786B4601220B
:10207000FFF7FCF910B14FF0FF30EAE7B34A1268FE
:10208000517EB24A526810786B460622FFF7E1FA99
:1020900010B14FF0FF30DCE79DF80500C007400F9E
:1020A0009DF8031001F0010140EA41009DF8011084
:1020B00001F0010140EA010484B1012C03D10121A6
:1020C000A248C1742DE0022C03D100219F48C174A5
:1020D00027E000BF00BF4FF0FF30BAE79B4A12680D
:1020E000D1789A4A526810786B460122FFF7B1FA0C
:1020F00010B14FF0FF30ACE79DF8000000F00F0486
:1021000024B900BF00BF4FF0FF30A2E7042C05D177
:1021100000BF00BF01218D48C17402E000218B483F
:10212000C174FF2189488172FF2088490872FF210C
:1021300086484172C1724FF6FF71C181FF2101745F
:1021400081740121017380F82210002180F823108E
:10215000417501751630016041608160163880F864
:10216000241080F82510C1844FF4FA60FFF71DFF9A
:1021700010B14FF0FF306CE70220FFF7D4FE10B132
:102180004FF0FF3065E72A20FFF7D5FD10B14FF083
:10219000FF305EE73220FFF77AFE10B14FF0FF30DC
:1021A00057E70020FFF792FD10B14FF0FF3050E7E6
:1021B0000020FFF703FC10B14FF0FF3049E700208B
:1021C000FFF797FB002044E77CB504460D465F48C7
:1021D000807A00F0700010B94FF0FF307CBD5B4A90
:1021E0001268917B594A526810786B460622FFF7B5
:1021F00030FA10B14FF0FF30F0E79DF801009DF884
:10220000001040EA012000B220809DF803009DF8F4
:10221000021040EA012000B260809DF805009DF8A0
:10222000041040EA012000B2A08015B12846FEF754
:10223000CDFE0020D2E77CB504460D464348807AA7
:1022400000F0080010B94FF0FF307CBD3F4A126823
:10225000D17B3E4A526810786B460622FFF7F9F9A7
:1022600010B14FF0FF30F0E79DF801009DF800102D
:1022700040EA012000B220809DF803009DF8021082
:1022800040EA012000B260809DF805009DF804102E
:1022900040EA012000B2A08015B12846FEF796FE64
:1022A0000020D2E72DE9FE4F05460C462748807AEC
:1022B00018B94FF0FF30BDE8FE8F244A1268117C38
:1022C000224A5268107802AB0222FFF7C2F910B11D
:1022D0004FF0FF30EFE79DF809009DF8081040EA45
:1022E000012006B214B12046FEF770FE1749496876
:1022F000C88802F0D8FB154901904968B1F9080077
:1023000002F0C8FB8346304602F0C4FB59460090F9
:1023100002F0D8FA8246019902F00CFB81460C4982
:1023200002F07EFA80464FF08F4102F0D1FA074664
:1023300002F0BEFB28600020BDE710B588B004465F
:1023400044B94FF0FF3008B010BD00005800002025
:1023500000000C42206828B9606818B9A06808B964
:102360000020F0E7FA494968087806AB03221146D5
:10237000FFF76FF910B14FF0FF30E4E79DF8180058
:10238000082101EB201000F00F00ADF800009DF8CF
:10239000190001EB201000F00F00ADF802009DF8CD
:1023A0001A0001EB201000F00F00ADF804002068C7
:1023B0004100BDF90000403091FBF0F000B2ADF8F3
:1023C000100060684100BDF90200403091FBF0F060
:1023D00000B2ADF81200A0684100BDF90400403021
:1023E00091FBF0F000B2ADF81400D94949680878C3
:1023F00006AB06221146FFF72CF910B14FF0FF3063
:10240000A1E79DF819009DF8181040EA012000B2DC
:10241000ADF808009DF81B009DF81A1040EA012055
:1024200000B2ADF80A009DF81D009DF81C1040EAAE
:10243000012000B2ADF80C00BDF81000BDF8081086
:10244000084400B2ADF81000BDF81200BDF80A1043
:10245000084400B2ADF81200BDF81400BDF80C102D
:10246000084400B2ADF81400BDF81000000A8DF861
:102470001800BDF81000C0B28DF81900BDF81200A8
:10248000000A8DF81A00BDF81200C0B28DF81B00CA
:10249000BDF81400000A8DF81C00BDF81400C0B28D
:1024A0008DF81D00AA494968087806AB0622114636
:1024B000FEF7DCFF10B14FF0FF3044E7002042E7A9
:1024C0000146A348007A30B1012807D0022809D07C
:1024D00003280FD10AE0FA2008800EE04FF4FA70CA
:1024E00008800AE04FF47A70088006E04FF4FA6042
:1024F000088002E00020088000BF00BF0020704775
:1025000001469348407A30B1012807D0022808D00C
:1025100003280CD108E0022008700BE004200870AA
:1025200008E00820087005E01020087002E04FF075
:10253000FF30704700BF8648C07C18B1087840065D
:10254000000E08700020F4E701468148C07A082890
:1025500017D2DFE800F01704070A0D101318BC208B
:10256000088013E06220088010E02A2008800DE037
:10257000142008800AE00A20088007E0052008806F
:1025800004E000BF00BF0020088000BF00BF0020A3
:10259000704701466E4890F8240010B14FF0FF30AC
:1025A00070476B48C08908800020F9E70146002089
:1025B0000880401E704701464FF0FF3070470146CB
:1025C0006348007A30B1012807D0022808D00328D8
:1025D0000CD108E05F4808600BE05F48086008E045
:1025E0005E48086005E05E48086002E04FF0FF309A
:1025F000704700BF0020FBE701465548407A30B1E4
:10260000012808D002280AD0032810D10BE04FF48B
:10261000804008800EE041F69C7008800AE04FF48C
:102620008050088006E04FF40060088002E04FF020
:10263000FF30704700BF4648C07C10B1088840108A
:1026400008800020F5E701464148007C0870002022
:10265000704701463E48807A10B10120087001E0C1
:10266000002008700020704738B504463848807A4A
:1026700010B94FF0FF3038BD354A1268917C344AAA
:10268000526810786B460222FEF7E3FF10B14FF05C
:10269000FF30F0E79DF801009DF8001040EA0120AE
:1026A00000B220800020E6E72DE9FE4F074688466D
:1026B00092461D46DDF830B000260024244890F8EC
:1026C000240010B1601EBDE8FE8F00202870204855
:1026D000807A10B94FF0FF30F5E71D48007C10B943
:1026E0004FF0FF30EFE71A48007C00F0400008B1DF
:1026F000B01CC6B21648007C00F0200008B1B01C27
:10270000C6B21348007C00F0100008B1B01CC6B27D
:102710000F48007C00F0080008B1B01DC6B20C4A9A
:102720001268117B0A4A526810786B460222FEF743
:1027300090FF10B14FF0FF30C5E79DF801009DF804
:10274000001040EA0129B1450CDA0020BBE7000087
:10275000580000200000034300008342333303424B
:1027600033338341FE4840684088B9EB600F17DD82
:10277000FB4A1268D17CFA4A526810786B460122F3
:10278000FEF767FF10B14FF0FF309CE79DF80000A7
:1027900000F0100020B1FFF7B5F96FF0010092E7EB
:1027A0005046FEF713FCEE4A1268517BEC4A526821
:1027B00010786B463246FEF74CFF10B14FF0FF30F9
:1027C00081E799FBF6F0401E8BF80000002028708E
:1027D000B4422AD0E248007C00F0080028B3601C14
:1027E0001DF800001DF8041040EA012000B2A8F80E
:1027F0000000E01C1DF80010A01C1DF8000041EABC
:10280000002000B2A8F80200601D1DF80010201D75
:102810001DF8000041EA002000B2A8F80400287862
:1028200040F008002870A01D84B2B44213D0CC48F8
:10283000007C00F0400070B1601C1DF800001DF825
:10284000041040EA012000B23880287840F04000AF
:102850002870A01C84B2B44213D0C148007C00F0A0
:10286000200070B1601C1DF800001DF8041040EA43
:10287000012000B27880287840F020002870A01C49
:1028800084B2B44213D0B648007C00F0100070B19E
:10289000601C1DF800001DF8041040EA012000B281
:1028A000B880287840F010002870A01C84B2002066
:1028B00009E7F8B504460F461646A94890F82400E3
:1028C00010B94FF0FF30F8BDA548807A10B94FF02D
:1028D000FF30F8E7A24A1268117BA14A52681078CB
:1028E0006B460222FEF7B5FE10B14FF0FF30EAE76B
:1028F0009DF801009DF8001040EA0125A54203DA89
:1029000000203070401EDEE7954840684088B5EBF7
:10291000600F17DD924A1268D17C914A5268107894
:102920006B460122FEF795FE10B14FF0FF30CAE76B
:102930009DF8000000F0100020B1FFF7E3F86FF001
:102940000100C0E7864A1268517B854A52681078B8
:102950003B462246FEF77DFE10B14FF0FF30B2E756
:1029600095FBF4F0401E30700020ACE701467C4837
:1029700080F82210002070477CB5054678494968E8
:10298000087801AB04220D21FEF763FE08B1072091
:102990007CBD9DF80700C0F301109DF8041001F004
:1029A000E00140EAE1008DF800009DF80700C0F367
:1029B00081009DF8051001F0E00140EAE1008DF88A
:1029C00001009DF8070000F003009DF8061001F0DB
:1029D000E00140EAE1008DF8020000241CE01DF84F
:1029E000040018B9002045F8240013E05D4845F8BC
:1029F000240006E055F824005B4901F069FF45F822
:102A000024001DF80400401EC0B20DF80400002888
:102A1000F0D100BF601CC4B2032CE0DB0020B7E79C
:102A20002DE9FE4F0746884600256846FFF7A4FFBC
:102A300000244AE057F8240058F82410A0EB010ABB
:102A4000BAF1000F01DB514601E0CAF1000108466E
:102A500002F020F883464FF08F4101F06BFF814672
:102A60005DF82400002102F07FF81ED05DF82410EC
:102A7000484601F05FFF82464FF07E5101F022FF91
:102A800006460021304602F079F801D2304601E0D6
:102A900086F0004082463548416A504602F06EF8A2
:102AA00012D20120A04005430EE03048C1694846DB
:102AB00002F05AF805D32D48016A484602F05EF844
:102AC00002D20120A0400543641C032CB2DB28463F
:102AD000BDE8FE8F2DE9FC5F0746884600252049AA
:102AE0004968087801AB03220D21FEF7B2FD10B151
:102AF0000720BDE8FC9F9DF8040000F01F008DF842
:102B000004009DF8050000F01F008DF805009DF8F9
:102B1000060000F01F008DF8060000246AE057F858
:102B2000240058F82410A0EB010BBBF1000F01DBCF
:102B3000594601E0CBF10001084601F0ABFF4FF030
:102B40008F41009001F0F6FE824601A8005D98B327
:102B50000649086801F0A7FF83465946044809E082
:102B6000580000207B14AE3E1D5A843FCC61000803
:102B700000B04C4501F0DEFE814604E0FE494846C7
:102B800001F0A6FE814601A8005D401EC0B201A969
:102B900008550028F2D14946504601F0CBFE834645
:102BA0004FF07E5101F08EFE06460021304601F0C6
:102BB000E5FF02D2304602E00CE086F0004083469A
:102BC000EE488169584601F0D9FF12D20120A04099
:102BD00005430EE0E9480169504601F0C5FF05D301
:102BE000E6484169504601F0C9FF02D20120A040E9
:102BF0000543641C032C92DB28467AE72DE9F04F4D
:102C000087B005460C46914601208DF81000002043
:102C10008DF81100DA4A1268517DD94A526810784D
:102C200004AB0222FEF722FC20B14FF0FF3007B0C8
:102C3000BDE8F08FC820FEF7C1F900208DF8100024
:102C4000CF4A1268517CCE4A5268107804AB0122F8
:102C5000FEF70CFC10B14FF0FF30E8E7C84A1268ED
:102C60005179C74A5268107804AB0122FEF7FEFB87
:102C700010B14FF0FF30DAE7C14A1268517DC04A07
:102C80005268107804AB0122FEF7F0FB10B14FF050
:102C9000FF30CCE7BA4A1268917EB94A5268107880
:102CA00004AB0122FEF7E2FB10B14FF0FF30BEE7AC
:102CB000B34A12681179B24A5268107804AB012203
:102CC000FEF7D4FB10B14FF0FF30B0E70C208DF8C9
:102CD0001000AB4A12681179A94A5268107804AB07
:102CE0000122FEF7C3FB10B14FF0FF309FE70F202A
:102CF000FEF764F9A248806A407A8DF81000A04A75
:102D0000126891789E4A5268107804AB0122FEF74F
:102D1000ADFB10B14FF0FF3089E79948806A007A27
:102D20008DF81000964A12685178954A52681078CA
:102D300004AB0122FEF79AFB10B14FF0FF3076E7AB
:102D4000B9F1000F07D08E48806A807A40F0E00029
:102D50008DF8100004E08A48806A807A8DF81000AF
:102D6000874A12689179864A5268107804AB01222A
:102D7000FEF77CFB10B14FF0FF3058E7B9F1000FC0
:102D800007D07F48806AC07A40F0E0008DF81000DC
:102D900003E07A48C07A8DF81000794A1268D17938
:102DA000774A5268107804AB0122FEF75FFB10B13E
:102DB0004FF0FF303BE7B9F1000F02D0C820FEF71B
:102DC000FDF840208DF810006D4A126811796C4AA8
:102DD0005268107804AB0122FEF748FB10B14FF0A7
:102DE000FF3024E778208DF81000654A1268517989
:102DF000634A5268107804AB0122FEF737FB10B12A
:102E00004FF0FF3013E75D498889FEF7D7F80020BF
:102E10008DF810005A4A12685179594A5268107850
:102E200004AB0122FEF722FB10B14FF0FF30FEE6AB
:102E3000534A1268117B524A5268107804AB02223E
:102E4000FEF707FC10B14FF0FF30F0E69DF81100DF
:102E50009DF8101040EA012B0C209BFBF0F0C6B24D
:102E60000020A86068602860A060606020608246E2
:102E700065E0434A1268517B414A5268107804ABBE
:102E80000C22FEF7E6FB10B14FF0FF30CFE69DF8C5
:102E900011009DF8101040EA012000B2ADF80800C2
:102EA0009DF813009DF8121040EA012000B2ADF821
:102EB0000A009DF815009DF8141040EA012000B2A8
:102EC000ADF80C00BDF90810206808442060BDF979
:102ED0000A10606808446060BDF90C10A0680844DE
:102EE000A0609DF817009DF8161040EA012000B27E
:102EF000ADF800009DF819009DF8181040EA012077
:102F000000B2ADF802009DF81B009DF81A1040EACF
:102F1000012000B2ADF80400BDF900102868084493
:102F20002860BDF90210686808446860BDF90410A3
:102F3000A8680844A8600AF1010000F0FF0AB24541
:102F400097DB0E48D0F800C02868C117090441EA91
:102F50001041070462460023384601F011FC324656
:102F60000023CDE9020101F00BFC28600348D0F8F2
:102F700000C06868C11705E054E3853FCC610008D4
:102F800058000020090441EA10410704624600236A
:102F9000384601F0F5FB32460023CDE9020101F08D
:102FA000EFFB6860FE48D0F800C0A868C1170904AC
:102FB00041EA1041070462460023384601F0E0FB75
:102FC00032460023CDE9020101F0DAFBA860F448A3
:102FD000D0F804C02068C117090441EA1041070471
:102FE00062460023384601F0CBFB32460023CDE990
:102FF000020101F0C5FB2060E948D0F804C0606818
:10300000C117090441EA104107046246002338460B
:1030100001F0B6FB32460023CDE9020101F0B0FB1E
:103020006060DF48D0F804C0A068C117090441EA15
:103030001041070462460023384601F0A1FB3246E6
:103040000023CDE9020101F09BFBA060A0680028ED
:1030500004DDA068A0F58030A06003E0A06800F562
:103060008030A0600020E2E538B50446CD4890F8F5
:103070002400A04201D1002038BD24B3C94890F8F3
:10308000250010B94FF0FF30F6E70020FEF772FB85
:103090000020FEF793FCC349C88CFEF7F8FE002021
:1030A0000090C049496808786B4601222321FEF749
:1030B000DDF90121BB4880F824100120FEF75AFBFE
:1030C000FEF720FD13E00020FEF754FBB548007C1E
:1030D0000090B449496808786B4601222321FEF725
:1030E000C5F90021AF4880F82410FEF70BFD002041
:1030F000C2E72DE9F04F8DB083460F4602200C90B9
:10310000A84890F8240020B10020FFF7ADFF012669
:1031100000E0002603A8FFF7D3F905A8FFF7F0F9B0
:1031200001A8FFF711FA02A8FFF733FA9D4890F8BB
:103130000AA004A8FFF787FA002407E00022394616
:103140005846FFF75BFD00B902E0641C022CF5DB7A
:1031500000BF022C01D1002528E0002407E0012255
:1031600006A909A8FFF74AFD00B902E0641C022C79
:10317000F5DB00BF022C01D1002517E006A9384677
:10318000FFF74EFC00F0FF0809A95846FFF7A2FC24
:1031900000F0FF090025B9F1000F01D145F001054C
:1031A000B8F1000F01D145F0020500BFFF207D49B5
:1031B0000872FF217B484172C1724FF6FF71C181D5
:1031C000FF218172017401210173BDF80C00FEF72B
:1031D000ECFE9DF81400FEF7A6FEBDF80400FEF715
:1031E000AAFDBDF80800FEF752FE5046FEF781FB2F
:1031F0009DF81000FEF76AFD16B10120FFF734FFBD
:1032000028460DB0BDE8F08FF8B504460D461646C9
:1032100016B94FF0FF30F8BD6248807A10B94FF010
:10322000FF30F8E720128DF80000E0B28DF80100C1
:103230009DF8010028445B4949684989884202DDBC
:103240004FF0FF30E7E7574A1268D17E554A52687F
:1032500010786B460222FEF709F910B14FF0FF30EB
:10326000D9E7504A1268117E4E4A526810783346A8
:103270002A46FEF7FBF810B14FF0FF30CBE70020F5
:10328000C9E7F8B504460D46164616B94FF0FF30AB
:10329000F8BD4448807A10B94FF0FF30F8E72012AB
:1032A0008DF80000E0B28DF801009DF8010028447F
:1032B0003C4949684989884202DD4FF0FF30E7E721
:1032C000384A1268D17E374A526810786B4602221B
:1032D000FEF7CCF810B14FF0FF30D9E7314A126851
:1032E000117E304A5268107833462A46FEF7B1F90B
:1032F00010B14FF0FF30CBE70020C9E72DE9F043D4
:1033000085B005460E4690469946264890F8250019
:1033100020B14FF0FF3005B0BDE8F08316B94FF093
:10332000FF30F8E7002423E0281B102801DD1020DF
:1033300000E0281B87B2321939462046FFF764FFA8
:1033400010B14FF0FF30E6E701AA39462046FFF7FB
:1033500098FF10B14FF0FF30DDE730193A4601A970
:1033600001F051FA10B16FF00100D4E7E01984B216
:10337000AC42D9DB4FEA28208DF8000008F0FF00AE
:103380008DF80100074A1268517F064A526810788A
:103390006B460222FEF76AF830B14FF0FF30BAE711
:1033A000CC6100085800002001218C4880F82510CD
:1033B000A0F826900020AEE70146884890F8240047
:1033C0000870002070474FF0FF30704702464FF002
:1033D000FF30704701464FF0FF307047F8B50546A3
:1033E0000F461446002C70D0B5F5FF5F01DDFF26B7
:1033F00005E0202D01DA012601E0C5F3471607B9E3
:103400000127282C02DD4FF0FF30F8BD7348407DC6
:1034100028BB724890F8240038B10020FFF724FE42
:1034200001216E4880F8201003E000216B4880F8ED
:1034300020106A481630FFF743F868481830FFF745
:103440005FF866481A30FFF77FF864481C30FFF7D2
:10345000A0F86248817A81771F30FFF7F4F80020E6
:10346000FEF788F90020FEF7A5FC00208DF800008B
:103470005A4A12689178594A526810786B4601226C
:10348000FDF7F4FF10B14FF0FF30BEE740208DF89C
:103490000000524A1268517C504A526810786B46BC
:1034A0000122FDF7E3FF00B165E08DF800608DF8C3
:1034B00001704A4A1268917A484A526810786B46FD
:1034C0000222FDF7D3FF08B155E047E00520FDF7E4
:1034D00075FD4248407A072101EBC000C0B28DF86B
:1034E00000003E4A1268D1793C4A526810786B4617
:1034F0000122FDF7BBFF00B13DE020208DF8000068
:10350000012C03D100208DF801000EE0052C03DC16
:1035100001208DF8010008E0142C03DC02208DF856
:10352000010002E003208DF801009DF80100072151
:1035300001EB8010C0B28DF80100284A1268517D5D
:10354000264A526810786B460222FDF78FFF00B1C1
:1035500011E0012121484175002056E71F4A16322B
:10356000002103E0505C00B105E0491C0C29F9D3AF
:103570004FF0FF3049E7FF2018490872FF21174834
:103580004172C1724FF6FF71C181FF2181720174D6
:10359000012101730146887FFEF7ABF90F49C88A04
:1035A000FEF703FD0D49087EFEF7BDFC0B49488B75
:1035B000FEF7C1FB0949888BFEF769FC0749C87F04
:1035C000FEF784FB054890F8200010B10120FFF7BA
:1035D0004BFD002101484175002016E758000020EE
:1035E00010B5C8234FF48062F74940F6F630FFF774
:1035F00085FE10BD10B586B00446F4A000680390A7
:10360000F3A000680290F3A000680190F2A00068A7
:10361000009004F0030003A9085C8DF8140003A8CF
:10362000C4F3C101405C8DF8150003A8C4F38111F7
:10363000405C8DF8160004F0030002A9085C8DF8C8
:10364000100002A8C4F3C101405C8DF8110002A86B
:10365000C4F38111405C8DF8120005AA032140F2E9
:103660002640FFF7D1FD18B14FF0FF3006B010BD76
:1036700004AA032140F22A40FFF7C6FD10B14FF023
:10368000FF30F3E7019805900098049004F00400DF
:1036900058B19DF8140040F001008DF814009DF819
:1036A000100040F001008DF8100004F0200058B127
:1036B0009DF8150040F001008DF815009DF81100EF
:1036C00040F001008DF8110004F4807058B19DF8AD
:1036D000160040F001008DF816009DF8120040F031
:1036E00001008DF8120005AA03214FF48860FFF74E
:1036F0008BFD10B14FF0FF30B8E704AA032140F270
:103700003140FFF781FD10B14FF0FF30AEE7B34815
:1037100004810020AAE71FB50446B048007A00F0F3
:10372000030054F820000190AC48007A00F0040037
:1037300010B1019840420190A848007AC0F3C1003E
:1037400054F820000290A548007A00F0200010B143
:10375000029840420290A148007AC0F3811054F8C8
:10376000200003909D48008900F4807010B10398F8
:10377000404203909A49019880FB0101800F40EA82
:10378000810001909649029880FB0110820042EA74
:10379000917002909249039880FB0110820042EAE6
:1037A000917003900198000E8DF800000198000CB4
:1037B0008DF801000198000A8DF802000198C0B24E
:1037C0008DF803006A4604214FF47470FFF71CFD66
:1037D00018B14FF0FF3004B010BD0298000E8DF804
:1037E00000000298000C8DF801000298000A8DF884
:1037F00002000298C0B28DF803006A4604214FF41B
:103800007570FFF701FD10B14FF0FF30E3E703984B
:10381000000E8DF800000398000C8DF8010003984D
:10382000000A8DF802000398C0B28DF803006A46C2
:1038300004214FF47670FFF7E7FCCCE770B588B051
:10384000064601A8FEF7D8FEBDF804000021C90312
:1038500041EA5045C4036148007A00F0030056F87D
:10386000200005905D48007A00F0040010B1059832
:10387000404205905948007AC0F3C10056F8200034
:1038800006905648007A00F0200010B10698404299
:1038900006905248007AC0F3811056F82000079035
:1038A0004E48008900F4807010B10798404207909C
:1038B0000598C117A0FB042301FB043100FB051090
:1038C000810041EA927005900698C117A0FB04237D
:1038D00001FB043100FB0510810041EA9270069063
:1038E0000798C117A0FB042301FB043100FB05105E
:1038F000810041EA927007900598000E8DF808004B
:103900000598000C8DF809000598000A8DF80A004A
:103910000598C0B28DF80B000698000E8DF80C00CB
:103920000698000C8DF80D000698000A8DF80E0020
:103930000698C0B28DF80F000798000E8DF81000A1
:103940000798000C8DF811000798000A8DF81200F6
:103950000798C0B28DF8130002AA0C214FF425700D
:10396000FFF752FC08B070BD30B585B004461DA20B
:1039700007CA02AB07C3C82C03DD4FF0FF3005B008
:1039800030BDC82090FBF4F0401E85B2280A8DF8A7
:103990000000E8B28DF801006A46022140F21620CC
:1039A000FFF732FC10B14FF0FF30E8E702AA0C211C
:1039B00040F6C120FFF728FC10B14FF0FF30DEE7E2
:1039C000064884810020DAE7F46100084CCD6C00E1
:1039D0000CC92C003656760026466600A80000204A
:1039E00009E3CA02FEF2ABC4AAF1DFDFBBAFDFDF3F
:1039F0000146FC4880890880002070472DE9FC477B
:103A000006460F4606F0070010B1B7F5C86F03DD94
:103A10004FF0FF30BDE8FC87384601F044F881469E
:103A2000F14900F087FF80466846FEF769FD9DF882
:103A30000000022806D0042816D0082826D0102816
:103A400048D135E04FF08D41404600F041FF8146BE
:103A500001F047F884B2E549404600F039FF81465D
:103A600001F03FF885B238E04FF08C41404600F05D
:103A70002FFF814601F035F884B2DD49404600F061
:103A800027FF814601F02DF885B226E04FF08B41EB
:103A9000404600F01DFF814601F023F884B2D5496D
:103AA000404600F015FF814601F01BF885B214E096
:103AB0004FF08A41404600F00BFF814601F011F8BB
:103AC00084B2CD49404600F003FF814601F009F879
:103AD00085B202E04FF0FF309CE700BF20128DF866
:103AE0000400E0B28DF8050028128DF80600E8B257
:103AF0008DF8070006F00100A0B101AA02214FF4E1
:103B0000EA70FFF781FB10B14FF0FF3082E70DF153
:103B1000060202214FF49270FFF776FB10B14FF0CE
:103B2000FF3077E706F00200A0B101AA02214FF4AE
:103B3000EC70FFF769FB10B14FF0FF306AE70DF151
:103B4000060202214FF49470FFF75EFB10B14FF0B4
:103B5000FF305FE706F00400A0B101AA02214FF494
:103B6000EE70FFF751FB10B14FF0FF3052E70DF14F
:103B7000060202214FF49670FFF746FB10B14FF09A
:103B8000FF3047E7002045E738B5044600200090A5
:103B900004F0010020B19DF8000040F030000090DA
:103BA00004F0020020B19DF8000040F00C000090ED
:103BB00004F0040020B19DF8000040F003000090E4
:103BC0006A4601214FF4A470FFF71EFB38BD38B5DB
:103BD0000446012C01DA012402E0042C00DD042457
:103BE000601EC0B200906A46012140F24F10FFF7FC
:103BF0000BFB38BD38B50446052094FBF0F085B2C8
:103C000028128DF80000E8B28DF801006A46022102
:103C10004FF4EF70FFF7F8FA38BD38B504460520C9
:103C200094FBF0F085B228128DF80000E8B28DF810
:103C300001006A4602214FF4ED70FFF7E5FA38BD46
:103C4000F8B505460E464FF47A7095FBF0F000FB90
:103C500006F4200E8DF80000200C8DF80100200ADB
:103C60008DF80200E0B28DF803006A4604214FF49B
:103C7000AE70FFF7C9FAF8BD38B50446052094FBCD
:103C8000F0F084B220128DF80000E0B28DF801004F
:103C90006A4602214FF4AD70FFF7B6FA38BD38B569
:103CA0000446052094FBF0F084B220128DF8000049
:103CB000E0B28DF801006A4602214FF4AC70FFF7C4
:103CC000A3FA38BD38B5044614B94FF0FF3038BDFB
:103CD0006A4604214FF45870FFF7D3FA10B14FF041
:103CE000FF30F4E79DF8000000069DF8011040EA5F
:103CF00001409DF8021040EA01209DF8031008439E
:103D000020600020E3E738B50446200E8DF800005F
:103D1000200C8DF80100200A8DF80200E0B28DF829
:103D200003006A4604214FF45870FFF76DFA38BD5E
:103D300038B5044614B94FF0FF3038BD6A46042147
:103D40004FF47170FFF79DFA10B14FF0FF30F4E7B8
:103D50009DF8000000069DF8011040EA01409DF822
:103D6000021040EA01209DF80310084300EB800098
:103D7000800020600020E0E738B504461420B4FB42
:103D8000F0F4200E8DF80000200C8DF80100200AC0
:103D90008DF80200E0B28DF803006A4604214FF46A
:103DA0007170FFF731FA38BD38B5044664B1202090
:103DB0008DF8000028208DF8010030208DF80200D9
:103DC00038208DF8030004E0A3220421684600F0A7
:103DD00008FD6A46042140F69E20FFF715FAFDF71C
:103DE00091FE38BDA8000020000048430000404676
:103DF0000000C045000040450000C04438B50446FE
:103E000064B1C0208DF80000C2208DF80100C420EC
:103E10008DF80200C6208DF8030004E08B220421F7
:103E2000684600F0DEFC6A46042140F69820FFF761
:103E3000EBF9FDF767FE38BD3EB504466CB1FDA158
:103E4000D1E900208968CDE9002002916A46092164
:103E50004FF49760FFF7D8F93EBDF9A2D2E9001000
:103E60009268CDE9010200916A4609214FF49760FA
:103E7000FFF7CAF9F0E73EB5044602208DF80000CE
:103E8000CA208DF80100E3208DF8020009208DF88A
:103E900003006A4604216820FFF7B6F9A3208DF8D5
:103EA000000004F0400048B1C0208DF80100C82097
:103EB0008DF80200C2208DF8030006E0A3208DF8E3
:103EC00001008DF802008DF8030004F4C07048B1C1
:103ED000C4208DF80400CC208DF80500C6208DF894
:103EE000060006E0A3208DF804008DF805008DF88B
:103EF0000600A3208DF807008DF808008DF8090052
:103F00006A460A2140F6A720FFF77EF904F0030075
:103F100018B120208DF8000002E0D8208DF80000B4
:103F20006A46012140F6B620FFF76EF904F0200042
:103F300018B10120FFF780FF02E00020FFF77CFFAF
:103F400004F4C07008B304F4807060B1B2208DF83E
:103F500000008B208DF80100B6208DF802009B2018
:103F60008DF803000BE0B0208DF8000080208DF864
:103F70000100B4208DF8020090208DF803006A46FD
:103F8000042140F6A220FFF73FF904F0010020B31E
:103F9000F8208DF800006A4601214FF40B60FFF70E
:103FA00033F9FA210720FFF729FD0720FFF7ECFD81
:103FB0000120FFF70CFE6420FFF71CFE4FF4FA709F
:103FC000FFF72BFEC821A148FFF73AFE2820FFF794
:103FD00053FE0A20FFF763FE08E0D8208DF80000AA
:103FE0006A4601214FF40B60FFF70EF904F002005E
:103FF00018B1D9208DF8000002E0D8208DF800001B
:104000006A46012140F23D70FFF7FEF804F004001B
:1040100018B10120FFF7F2FE02E00020FFF7EEFEEC
:1040200004F0100018B10120FFF7BEFE02E00020EE
:10403000FFF7BAFE44F0080085494881FDF762FDAC
:1040400000208349887304F0400018B10846807B43
:10405000801D887304F4C07020B17D48807B801D72
:104060007B49887304F0140020B17948807B1030BC
:104070007749887304F0030020B17548807B001DE8
:104080007349887300203EBD01467148408908800D
:10409000002070472DE9F0410446E07800F0C006AA
:1040A000E07800F03F05607800F0010098B1EF1073
:1040B0002846E91705EB5171C910A5EBC101491C50
:1040C00001F0FF086248006820B16148414602687B
:1040D0003846904700BF607800F0080030B15C4877
:1040E000406818B1B0115A4A516888470020BDE8AD
:1040F000F08110B586B0044656A207CA03AB07C3C9
:1041000057A207CA8DE80700012C09D0022C0ED156
:1041100003AA0B2140F68220FFF776F806B010BD07
:104120006A460B2140F68220FFF76EF8F6E74FF063
:10413000FF30F3E72DE9F04F8DB00746884615466E
:104140009946DDE9166B0024002030804049887BC9
:104150005A4605A9FEF7ADFB18B1601E0DB0BDE8CB
:10416000F08F3B48807A00F01400002861D09DF861
:10417000140000069DF8151040EA01409DF8161045
:1041800040EA01209DF81710084328609DF81800A8
:1041900000069DF8191040EA01409DF81A1040EA07
:1041A00001209DF81B10084368609DF81C00000664
:1041B0009DF81D1040EA01409DF81E1040EA0120C4
:1041C0009DF81F100843A8609DF8200000069DF888
:1041D000211040EA01409DF8221040EA01209DF89C
:1041E00023100843E86004F11000C4B228680014EA
:1041F0000190686800140290A86800140390E868B1
:104200000014049001984043029901FB01000399B6
:1042100001FB0100049901FB010ABAF1706F02DB96
:10422000BAF1885F22DDFDF76DFC00203080401E72
:1042300094E721E0B8AAB38DB4980D355D00000075
:10424000B8AAAAAAB088C3C5C700000009E3CA0279
:10425000A8000020D8B1B9F38BA391B609B4D90056
:10426000DAB1B9F38BA391B6DAB4DA00B6F900008B
:1042700040F48070308000BF3448807A00F0400005
:1042800020B305A9601C085C095D40EA012000B26A
:10429000A8F8000005A9E01C095C05AAA01C105C98
:1042A00041EA002000B2A8F8020005A9601D095CDF
:1042B000201D105C41EA002000B2A8F80400A01DF7
:1042C000C4B2B6F9000040F0080030801F484089B1
:1042D00000F4C07008B305A9601C085C095D40EAE1
:1042E000012000B2388005A9E01C095C05AAA01CC9
:1042F000105C41EA002000B2788005A9601D095CCD
:10430000201D105C41EA002000B2B880A01DC4B29C
:10431000B6F9000040F0700030800C48807A00F060
:10432000030018B105A90819FFF7B4FE4846FCF7C9
:104330004DFE002012E7014604480160002070474E
:10434000014602484160002070470000A80000209C
:1043500070B588B002A905A8FEF7CBFE0446032C71
:104360003ED101A8FEF72BF9059800F093FB064615
:10437000019900F0ADFA054600F09AFB0590069809
:1043800000F088FB0646019900F0A2FA054600F00D
:104390008FFB0690079800F07DFB0646019900F020
:1043A00097FA054600F084FB079005A8FFF7B3F9DC
:1043B0006846FEF721F9BDF80010029848430290C4
:1043C000BDF80010039848430390BDF8001004980E
:1043D0004843049002A8FFF731FA002008B070BDEE
:1043E0000120FBE7014691F90020002A01DD0020B1
:1043F0001EE091F90020002A01DA042018E091F96A
:104400000120002A01DD012012E091F90120002A9B
:1044100001DA05200CE091F90220002A01DD0220DA
:1044200006E091F90220002A01DA062000E00720C8
:10443000704710B504462046FFF7D4FF0346E01C42
:10444000FFF7D0FF43EAC00083B2A01DFFF7CAFF09
:1044500043EA801083B2184610BD704770B500243F
:1044600000252846FDF7E3FD002840D17820FDF720
:1044700040FAC4B20CB1012070BD7820FDF726FCD3
:10448000C4B20CB10220F7E71420FDF700FDC4B25E
:104490000CB10320F0E7FFF7A3F8C4B20CB104207D
:1044A000EAE7AA48FFF7C5FF0646FFF7A3F8C4B23C
:1044B0000CB10520E0E740F27310FFF7DCFCC4B25A
:1044C0000CB10620D8E71420FFF74EFAC4B20CB1A5
:1044D0000720D1E7FFF73CFF04460CB10820CBE7EB
:1044E0000120FEF7C1FDC4B21CB10920C4E70A20B7
:1044F000C2E70020C0E72DE9F04F99B004460D4611
:1045000016464FF07E574FF000084FF000094FF06D
:10451000000A12A813A918AB0EAACDE9001014A91D
:1045200016A8FFF707FE18B1012019B0BDE8F08FFB
:10453000BDF84C0000F4807000287CD00E9800F08C
:10454000A9FA83464FF09D4100F0F4F907460F9811
:1045500000F0A0FA83464FF09D4100F0EBF9804651
:10456000109800F097FA83464FF09D4100F0E2F971
:104570008146119800F08EFA83464FF09D4100F07D
:10458000D9F9824639464FF0804000F0A1F94946FA
:10459000059000F09DF9414607904FF0404000F033
:1045A00097F95146059000F093F90690079900F0AD
:1045B00037F9834600F0A9FACDE9080101F0B4FA11
:1045C0004FF06632624BCDE90A0100F0F1F9CDE916
:1045D0000C0100F0ADFA206049464FF0804000F039
:1045E00077F94946029000F073F9414604904FF084
:1045F000404000F06DF94146029000F069F90390E7
:10460000049900F05FF983464FF07E5100F008F9FD
:10461000059000F07AFACDE9080139464FF0804064
:1046200000F056F94146039000F052F949460490D3
:104630004FF0804000E06AE000F04AF951460390F4
:1046400000F046F98346049900F0EAF8059000F07E
:104650005CFACDE90601DDE9082301F0ADFC4FF07D
:1046600066323B4BCDE90A0100F0A2F9CDE90C011D
:1046700000F05EFA28605146504600F029F949469C
:104680000490484600F024F941460390404600F06B
:104690001FF939460190384600F01AF90090019947
:1046A00000F0BEF80290039900F00CF983460499DB
:1046B00000F008F9059000F028FACDE9080151460C
:1046C000384600F005F949460490404600F000F9EC
:1046D0000390049900F0A4F84FF08041059000F099
:1046E000F7F8834600F011FACDE90601DDE9082369
:1046F00001F062FC4FF06632154BCDE90A0100F083
:1047000057F9CDE90C0100F013FA306001E0022006
:104710000BE7002009E710B54FF4FA70FCF74EFCE8
:10472000FFF79CFE04460AE0FFF798FE04464FF4AC
:10473000FA70FCF743FC214606A000F00DFD002CAA
:10474000F2D10AA000F008FD10BD00008400002096
:1047500066A64C404D50553630353020696E697430
:10476000206572726F723A25640D0A004D505536FD
:1047700030353020696E6974204F4B0D0A000000FF
:104780002DE9F0410024061B254671F1000605DAEB
:1047900001240027D0EB070067EB0101161E73F11F
:1047A000000605DA0027D2EB0702012567EB0303B9
:1047B00000F004FA86460E4617469C46AC4204D0EA
:1047C0000025D0EB050E65EB010624B10020D2EBED
:1047D000000760EB030C704631463A466346BDE87D
:1047E000F081D2B201E000F8012B491EFBD27047E4
:1047F0000022F6E710B513460A4604461946FFF7AD
:10480000F0FF204610BD30B504460020034600E00E
:104810005B1C934203D2E05CCD5C401BF8D030BD02
:10482000F0B480EA0102D40F4200B2EB410F02D291
:104830000246084611464A0042D0C30DDDB2C1F31C
:10484000C752AD1A202D35DAC1F3160141F400022A
:1048500004B15242C5F1200602FA06F12A41104481
:10486000B3EBD05F23D0C4B1012DA0EBC35009DC62
:10487000F0BC4FF0004202EAC352DBB200F5000088
:1048800000F0D6B9400000F1807000EBC350A0F1F9
:10489000807040EAD170490009E0490841EAC071DE
:1048A000A0EBC35000F50000400800EBC350F0BC83
:1048B00000F0B5B96142012202EB4101001BF6E7AD
:1048C000F0BC704781F00041AAE780F00040A7E704
:1048D00080EA010210B502F00043400022D04A00F5
:1048E0001FD0010E01EB1261C0F35600C2F3560255
:1048F00040F4000042F40002A0FB022000047F39D3
:10490000140400D0401C50EA124001D44000491E5B
:10491000C2B20C0604EBD010401C4008802A02D022
:1049200003E0002010BD20F00100002900DA002083
:10493000184310BD30B480EA010202F0004530F0A7
:10494000004221F0004013D090B1C30DD40DC2F34A
:104950001601C0F31600E41A41F4000140F400020D
:104960007D34914201D3641C00E04900002C02DA3E
:1049700030BC002070474FF400000023914201D367
:10498000891A034340084FEA4101F7D151B19142DE
:1049900002D14FF0004105E002D24FF0010101E0E9
:1049A0006FF0010103EBC450284430BC00F037B96C
:1049B0002DE9FE4F81EA030404F0004421F0004198
:1049C00000944FF0000B23F0004350EA01045ED046
:1049D00052EA03045BD0C3F30A54C1F30A552C44D2
:1049E000A4F2F3340194A0FB0254C1F3130141F487
:1049F0008011C3F3130343F4801301FB024400FB53
:104A0000034E840A970A44EA815447EA8357A4FB79
:104A1000076802958D0A05FB07854FEA932C04FB76
:104A20000C542705029D4FEA065847EA1637B5EBA6
:104A300008056EEB070C870E920E47EA811742EAD3
:104A40008312A7FB0201B6EB0B0164EB00042B0DF4
:104A500043EA0C335E1844EB1C50DA465146E7FB40
:104A60000201C5F313044FEA0B3343EA14534FEA30
:104A70000432019C43EA0603A4F10C040294009C56
:104A8000CDE900B400F011F903B0BDE8F08F0020CB
:104A90000146F9E7C10F80EAE0700844CA0796238F
:104AA000002100F0C5B896230022114600F0C0B8DE
:104AB00000F0004220F00040C10DC0F3160040F4A9
:104AC00000007F2901DA00207047962903DCC1F13C
:104AD0009601C84001E096398840002AF4D040424F
:104AE000704720F00040C10DC0F3160040F40000F4
:104AF0007F2901DA00207047962903DCC1F1960175
:104B0000C840704796398840704700F0004230F046
:104B100000400AD0C10D01F56071C0F3160042EAF1
:104B20000151C208400711437047002001467047F9
:104B300001F0004330B421F0004150EA010206D0F8
:104B40000A0DA2F56072C1F31301002A02DC30BC29
:104B500000207047440F44EAC104C100E01830BC93
:104B600000EBC25000F05BB8002801DBC0F1004050
:104B7000002901DBC1F1004181427047002801DBBF
:104B8000C0F10040002901DBC1F1004188427047BB
:104B900030B50B46014600202022012409E021FA0D
:104BA00002F59D4205D303FA02F5491B04FA02F50A
:104BB0002844151EA2F10102F1DC30BD2DE9F05FA1
:104BC0000546002092469B4688460646814640247C
:104BD0001BE0284641464746224600F04AFA534623
:104BE0005A46C01A914110D311461846224600F089
:104BF00031FA2D1A67EB01084F46224601200021A9
:104C000000F028FA17EB00094E41201EA4F1010420
:104C1000DFDC484631462A464346BDE8F09F00297E
:104C2000A8BF7047401C490008BF20F00100704732
:104C300010B4B0FA80FC00FA0CF050EA010404BF92
:104C400010BC704749B1CCF1200421FA04F411FAE8
:104C50000CF118BF012121430843A3EB0C01CB1D2C
:104C60004FEA00614FEA102042BF002010BC70479D
:104C700000EBC35010440029A4BF10BC7047401C77
:104C8000490008BF20F0010010BC704710B5141E89
:104C900073F1000408DA401C41F1000192185B41F5
:104CA0001A4301D120F0010010BD2DE9F04D9246CC
:104CB0009B4611B1B1FA81F202E0B0FA80F22032E3
:104CC000904600F0C7F904460F4640EA0A0041EA60
:104CD0000B0153465A46084313D0114653EA0100CC
:104CE00019D0C8F14002504600F0C3F905460E46FF
:104CF00050465946424600F0ADF9084305D0012020
:104D000004E020463946BDE8F08D0020054346EA20
:104D1000E0762C4337430A986305E40AA0EB0800C9
:104D20000022FD0A44EA47540A3002D50020014619
:104D3000E9E7010510196941DDE9084500196941F4
:104D4000BDE8F04DA2E72DE9FE4F804681EA030061
:104D5000C00F0C46009021F0004123F00045B8EB55
:104D60000200A94105D24046214690461C460B460A
:104D7000024623F00040104347D0270DC7F30A0036
:104D8000C3F30A510290401A019040286BDAC3F332
:104D9000130040F4801B0098924620B10023D2EB10
:104DA000030A63EB0B0B01985946C0F140025046D1
:104DB00000F050F906460D4650465946019A00F05B
:104DC00068F910EB08006141002487EA115284EA77
:104DD000E7731A4340D0009A62B3019A012A4FEA5E
:104DE000075215DC001B61EB02014FF0004202EAA2
:104DF0000752CDE90042001C41F5801132462B4696
:104E0000FFF753FF03B0BDE8F08F40462146F9E7B6
:104E1000001B61EB0201001C41F5801300185B418F
:104E20002018A2F5001747EB030140EAD570B61928
:104E30006D4111E06D084FEA360645EAC0754FEA4C
:104E40000752001B61EB0201001C41F5801149086B
:104E50004FEA30000019514132462B4603B0BDE8FD
:104E6000F04FFFF713BF0098012240000023D0EB62
:104E7000020263EBE073009821464FEAE074B8EB5E
:104E8000000061EB0401E9E783F000435BE781F098
:104E9000004158E72DE9F04D81EA030404F0004B8E
:104EA00021F0004514464FF0000A23F0004150EA7B
:104EB000050220D054EA01021DD0C5F30A5702466C
:104EC000C5F31303C1F31300C1F30A5640F4801570
:104ED00043F48013A7EB0608101BD64608F2FD38F2
:104EE00073EB050002D308F1010801E092185B4161
:104EF000B8F1000F03DA00200146BDE8F08D002074
:104F00004FF48011064684460EE0171B73EB05072D
:104F100005D3121B63EB050306434CEA010C490859
:104F20004FEA300092185B4150EA0107EDD152EA96
:104F3000030012D082EA040083EA0501084305D089
:104F4000101BAB4106D20122002306E000224FF0E5
:104F5000004302E06FF0010253101AEB06004CEB25
:104F6000085110EB0A0041EB0B01BDE8F04DFFF7D3
:104F70008DBE70B521F0004303430CD0C1F30A5538
:104F80000024D5EB040564EB0403D617AD1AB34136
:104F900002DB0020014670BD201841EB025170BDBC
:104FA000C1F30A52C1F3130140F2FF3341F48011FF
:104FB0009A4202DA00200146704740F233439A4297
:104FC000A2F2334202DC524200F053B800F042B881
:104FD00030B5041E71F1000404DB4FF00044404280
:104FE00064EB0101141E73F1000405DB1C464FF055
:104FF0000043524263EB04038B4208BF824230BD40
:1050000030B5041E71F1000404DB4FF0004440424F
:1050100064EB0101141E73F1000405DB1C464FF024
:105020000043524263EB0403994208BF904230BDF3
:10503000064C074D06E0E06840F0010394E80700E5
:1050400098471034AC42F6D3FBF776F8E06E0008D0
:10505000006F0008202A04DB203A00FA02F1002049
:1050600070479140C2F1200320FA03F319439040A6
:105070007047202A04DB203A21FA02F00021704711
:1050800021FA02F3D040C2F12002914008431946B0
:105090007047202A06DBCB17203A41FA02F043EA98
:1050A000E07306E041FA02F3D040C2F120029140E1
:1050B0000843194670472DE9F04D00231A461B1A84
:1050C0008A4103DB00200146BDE8F08DC1F30A529E
:1050D000C1F3130141F480154FF0000BD10702D149
:1050E00000186D41521E0027044640F2FF11384659
:1050F00001EB620A3E468046024600204FF48011D2
:10510000FFF7B7FFC2197141BB1846EB0100B4EBC2
:10511000030C75EB000C04D3E41A65EB000517468D
:105120000E46241908F101006D4180463428E3DD64
:10513000F91946EB0600091BA84103D24FF0FF32D4
:10514000134601E0002213461BEB070046EB0A5111
:10515000BDE8F04DFFF79ABD0FB4054B10B503A99C
:10516000044A029800F05CF910BC5DF814FB0000E2
:105170003117000890000020490050EAC12018BFF4
:1051800004204A0D18BF40F0010040F2FF72B2EB5C
:10519000515F08BF40F00200012808BF052070479A
:1051A0002DE9F0414F1E00EBC7010446D1E9000193
:1051B00015461E4637F006020DD02A463346FFF745
:1051C000F7FB7F1E04EBC703D3E90023FFF7BBFD0A
:1051D00037F00602F1D1022F25D0042F13D0062F6D
:1051E00018BFBDE8F0812A463346FFF7E1FBD4E95A
:1051F0000A23FFF7A8FD2A463346FFF7D9FBD4E977
:105200000823FFF7A0FD2A463346FFF7D1FBD4E978
:105210000623FFF798FD2A463346FFF7C9FBD4E97A
:105220000423FFF790FD2A463346FFF7C1FBD4E97C
:105230000223FFF788FD2A463346FFF7B9FBD4E97E
:105240000023BDE8F041FFF77EBD0122FFF791BECC
:10525000FFF779BD0022134610461146FFF71ABE2C
:10526000024A00201107FFF784BE000001FDFFFF86
:1052700002E008C8121F08C1002AFAD1704770471F
:10528000002001E001C1121F002AFBD1704700007D
:105290000149086070470000940000202DE9FF5F7D
:1052A00082B00021DDE90430020DDDF840B0034397
:1052B00018D044F61050A2F2FF3242431514119850
:1052C00001281FD0A5EB0B00401C5FEA000A4FF03D
:1052D00000064E4FDFF83891B046504615D5CAF15A
:1052E000000413E0119801244AA3012801D16FEAB8
:1052F0000B010298119AC0E90031C0E9024206B0E0
:10530000BDE8F09FCBF10000DFE704460021404AF2
:10531000491842EB0450CDE9001012E0E00707D035
:1053200032463B4640464946FFF742FB80468946A7
:1053300032463B4610461946FFF73AFB06460F46F3
:105340006410002CEAD1DDE90401DDE90023BAF1A3
:10535000000F06DAFFF72CFB42464B46FFF728FB0F
:1053600005E0FFF797FD42464B46FFF793FD0446E5
:105370000E460022284BFFF743FE03D84FF0FF30C4
:10538000014607E00022254B20463146FFF7DBFCB3
:10539000FFF706FE102409E0002C0ADB0A22002396
:1053A000FFF70CFC039B30321A55641E50EA0102D1
:1053B000F2D1641C039AC4F111031444119A012A16
:1053C00003D0012208430DD10AE0084304D0002095
:1053D0004FF0110B119072E7A3EB0B056D1E0DE062
:1053E0005B4504DD4FF0000205F1010504E003DA3E
:1053F0004FF00002A5F10105002AECD002981199A6
:10540000C0E90231C0E9004579E70000000014401E
:105410000000F03F300000000000F0430000E03FDB
:105420002DE9FF4F95B09A46884606460025EEE1E5
:10543000252877D100242746F94A0121039400E06A
:10544000044316F8013F203B01FA03F01042F7D164
:1054500030782A2811D06FF02F033078A0F1300275
:10546000092A16D8039A44F0020402EB820203EBE5
:1054700042021044761C0390EFE758F8042B039285
:10548000002A03DA504244F40054039044F002042A
:10549000761C30782E2816D116F8010F44F004043B
:1054A0002A280DD06FF02F023078A0F13003092B9D
:1054B00009D807EB870302EB4303C718761CF3E711
:1054C00058F8047B761C30786C280FD006DC4C280A
:1054D00017D068280DD06A2814D104E0742810D0A1
:1054E0007A280FD10DE044F400140AE044F480144B
:1054F00001E044F440147278824202D104F5801431
:10550000761C761C307866280BD013DC582877D0B0
:1055100009DC002875D04528F6D04628F4D0472865
:105520001AD193E118E0632835D0642879D0652832
:1055300012D18BE1702873D008DC6728F1D069287C
:105540006FD06E280DD06F2806D1ACE073282CD018
:10555000752874D0782853D05246179990476D1CFF
:1055600054E1C4F30250022809D003280DD0D8F822
:10557000001004280DD00D6008F1040846E1D8F8A9
:105580000010EA17C1E90052F6E7D8F800100D80C4
:10559000F2E70D70F0E718F8041B8DF800100020FA
:1055A0008DF80100EB46012003E058F804BB4FF0F2
:1055B000FF3061074FF0000102D40DE009F1010155
:1055C0008946B9420FDA8145F8DB1BF8091000293A
:1055D000F4D108E009F1010189468142FADB1BF8A8
:1055E00009100029F6D103985346A0EB090721467C
:1055F0003846179A00F080FA284400EB090507E0C6
:1056000044E008E10DE01BF8010B52461799904762
:10561000B9F10109F7D2534621463846179AF2E00C
:1056200039E00A21C4F302524FF0000B0091022A24
:1056300006D058F8040BC117032A09D00AE023E06A
:1056400008F1070020F00702F2E80201904605E0A9
:1056500000B2C117042A01D140B2C117002906DAED
:105660000A460021404261EB02012D2202E02205A0
:1056700004D52B228DF80420012203E0E20701D09B
:105680002022F7E7914657E00A2100E010214FF071
:10569000000B00910BE010214FF0000B44F00404CC
:1056A0000827009103E008204FF0000B0090C4F39E
:1056B0000252022A05D058F8040B0021032A08D010
:1056C00008E008F1070020F00702F2E80201904626
:1056D00003E080B2042A00D1C0B24FF000092207D3
:1056E0002AD53278702A07D0DDF800C08CF0100C73
:1056F0005CEA0B0C05D00EE040228DF8042001225C
:1057000008E050EA010306D030238DF804308DF80C
:10571000052002229146009B83F0080353EA0B0305
:105720000AD150EA010201D1620705D530228DF875
:1057300004204FF001097F1E3278582A04D039A284
:105740000C920CAA02920BE03BA2F9E75B46009A8E
:10575000FFF734FA0C9B9B5C029A521E0292137064
:1057600050EA0102F2D1029804A9081A00F1200BB4
:10577000600702D524F4803400E001275F4502DD94
:10578000A7EB0B0000E0002000EB0B01009003985A
:105790004944401A0390E00306D453462146179A21
:1057A000039800F0A9F90544002706E001A8524635
:1057B000C05D179990476D1C7F1C4F45F6DBE003D9
:1057C0000CD553462146179A039800F095F90544E5
:1057D00004E030205246179990476D1C0099481EEE
:1057E00000900029F5DC08E0029802995246007802
:1057F000491C0291179990476D1CBBF10001ABF158
:10580000010BF1DC5BE100F065F90544761C3078B2
:1058100000287FF40DAE19B02846BDE8F08F0000D7
:105820000928010030313233343536373839616276
:10583000636465660000000030313233343536373A
:10584000383941424344454600000000600700D417
:10585000062708F1070020F00700F0E80223804641
:1058600003F0004C5FEA0C0001D097A009E020058E
:1058700001D596A005E0E00701D095A001E0AFF2C8
:105880004C001390307823F0004365280CD006DCE0
:10589000452809D046281DD047287FD13BE06628FF
:1058A00018D067287AD136E00021112F01DB1120B2
:1058B00000E0781CCDE9000104A90CA8FFF7EEFC7C
:1058C000DDE90D010C9A4FF0000B07F10109109270
:1058D00000914EE04FF000400097CDE9011004A97F
:1058E0000CA8FFF7DBFCDDE90D020C9B0F994FF0D4
:1058F000000B91461093009211B9791C00EB01093D
:10590000B7EB090003D4C0F1FF3B07F10109A9EB94
:105910000700019042E0012F00DA01270021112F3A
:1059200001DD112000E03846CDE9000104A90CA8F2
:10593000FFF7B4FCDDE90D010C9A00914FF0000B6C
:10594000B946109221070FD4009A4A4503DA9146CE
:1059500001E0A9F10109B9F1010F05DD109AA9F1E2
:105960000101515C3029F4D0B84202DA10F1040F81
:1059700003DA0121CDE9011010E0002803DC8344A3
:10598000A9EB000102E0411C494500DD8946A0EB7E
:105990000B00401C01904FF000400290200705D4FE
:1059A0000198484502DB4FF0FF30019000208DF850
:1059B0004B0002980DF14B07B0F1004F25D00220AB
:1059C0000C902B200D90029800280CDA4042029097
:1059D0002D200D9007E00A210298FFF7D9F8303109
:1059E000029007F8011D0C99481E0C900029F2DC6A
:1059F00002980028EFD1791E0D980870307800F0D9
:105A0000200040F0450007F8020D11A8C01BC01D82
:105A100002901398007800B1012000EB0901019871
:105A200001EBE071029801440398401A401E039074
:105A3000E00306D453462146179A039800F05CF819
:105A400005441398007818B15246179990476D1C79
:105A5000E00323D553462146179A039800F04CF8EB
:105A600005441BE0BBF1000F07DB0098584504DD3F
:105A70001098179910F80B0001E017993020524642
:105A8000904701980BF1010B401E05F101050190B3
:105A900004D12E205246179990476D1CB9F1000190
:105AA000A9F10109DEDC05E017F8010B5246179950
:105AB00090476D1C0299481E02900029F4DC534661
:105AC0002146179A03989EE62D0000002B00000047
:105AD000200000002DE9F041044600251E4617462F
