:020000040800F2
:1000000000040020490100088D0D000825060008A5
:10001000890D000891010008F91000080000000097
:10002000000000000000000000000000190F0008A0
:1000300095010008000000008F0D000895100008D1
:100040006301000863010008630100086301000800
:1000500063010008630100086301000863010008F0
:1000600063010008630100086301000863010008E0
:1000700063010008630100086301000863010008D0
:1000800063010008630100086301000863010008C0
:1000900063010008630100086301000863010008B0
:1000A00063010008630100086301000863010008A0
:1000B0006301000863010008630100086301000890
:1000C0006301000863010008630100086301000880
:1000D0006301000863010008630100086301000870
:1000E0006301000863010008630100086301000860
:1000F0006301000863010008630100086301000850
:10010000630100086301000863010008630100083F
:10011000630100086301000863010008630100082F
:10012000630100086301000863010008630100081F
:10013000DFF810D000F01AF8004800471B11000843
:10014000AFF30080000400200648804706480047BF
:10015000FEE7FEE7FEE7FEE7FEE7FEE7FEE7FEE777
:10016000FEE7FEE79910000831010008064C074D34
:1001700006E0E06840F0010394E807009847103477
:10018000AC42F6D3FFF7D8FF142B0008242B00084D
:1001900000BFFEE77047000008B54EF67D7000F026
:1001A00064FD23A04EF67D731F220A2100901020CB
:1001B00000F0FEF84FF47A7000F04EFF4EF67D70BE
:1001C00000F053FD1EA04EF67D734FF6E0721E2127
:1001D0000090102000F0ECF81DA04EF67D731F2259
:1001E00032210090102000F0E3F81DA04EF67D7340
:1001F0004FF4784246210090102000F0D9F81CA05E
:100200004EF67D731F2264210090002000F0D0F88C
:100210001BA04EF67D734FF478428221009000209F
:1002200000F0C6F84FF4E16000F016FF08BD0000D2
:10023000CEC4D7D6CFD4CABEB2E2CAD40000000022
:10024000C8ABB6AFB5E7D7D3BCBCCAF50000000059
:10025000D7A8D7A2D2BABEA7C5FAB7A2000000009D
:10026000C8ABB3CCBCBCCAF5D6A7B3D6000000005F
:1002700054656C3A313539383933313335303800DB
:100280007777772E7164746563682E6E65740000ED
:100290002DE9F0410246002500260020002300241D
:1002A000002791F803C00CF00F0591F803C00CF083
:1002B000100CBCF1000F03D091F802C04CEA050508
:1002C00091F800C0BCF1000F31D0146800202BE081
:1002D0004FF0010C0CFA00F3B1F800C00CEA030671
:1002E0009E4220D183004FF00F0C0CFA03F7BC4361
:1002F00005FA03FC4CEA040491F803C0BCF1280F92
:1003000006D14FF0010C0CFA00FCC2F814C00AE050
:1003100091F803C0BCF1480F05D14FF0010C0CFA65
:1003200000FCC2F810C0401C0828D1D31460B1F8FA
:1003300000C0BCF1FF0F34DD546800202EE000F156
:10034000080C4FF0010808FA0CF3B1F800C00CEAF1
:1003500003069E4221D183004FF00F0C0CFA03F7E5
:10036000BC4305FA03FC4CEA040491F803C0BCF159
:10037000280F05D100F1080C08FA0CF8C2F8148017
:1003800091F803C0BCF1480F07D100F1080C4FF001
:10039000010808FA0CF8C2F81080401C0828CED3D7
:1003A0005460BDE8F0814161704701617047000011
:1003B0002DE9F84F0746884693469A46DDF828907F
:1003C0000097B3E099F8000080283DDA99F80060C2
:1003D0000D2E05D1009F08F110001FFA80F830E0C3
:1003E000202E03DDA6F1200086B200E000260024C6
:1003F00022E000251CE004EB06105049085C802137
:100400002941084040B108EB040291B27A1990B238
:100410005A4600F0F4F809E0D34507D008EB04028F
:1004200091B27A1990B2524600F0E9F8681CC5B250
:10043000082DE0DB601CC4B2102CDADB07F10800E9
:1004400087B209F1010971E0002668E006EB0610A9
:100450003B4911F8100099F8001088425DD106EB75
:100460000610374901EB4000407899F801108842A6
:1004700053D100244FE0002520E006EB0610304960
:1004800001EB4000801C10F814108020284101402E
:1004900041B108EB040291B27A1990B25A4600F0C9
:1004A000AEF809E0D34507D008EB040291B27A19FF
:1004B00090B2524600F0A3F8681CC5B2082DDCDBF0
:1004C000002524E006EB06101D4901EB4000801CCE
:1004D000012101EB4401405C80212941084048B1E1
:1004E00008EB040291B27A19083290B25A4600F031
:1004F00086F80AE0D34508D008EB040291B27A19D5
:10050000083290B2524600F07AF8681CC5B2082D45
:10051000D8DB601CC4B2102CADDB701C86B2322E4E
:1005200094DB09F1020907F1100087B299F8000085
:1005300000287FF447AFBDE8F88F00003C110008A9
:10054000AE1E00082DE9FF4F83B08046894649461C
:10055000404600F0E2FB0598A0EB08050698A0EBEA
:100560000906002D02DB0120029003E04FF0FF306E
:1005700002906D42002E02DB0120019003E04FF05B
:10058000FF30019076424FEA450A4FEA460BB542EA
:1005900019DDABEB0504002712E049464046109AEE
:1005A00000F02DF8002C05DBA4EB0A040198484468
:1005B0001FFA80F95C44029840441FFA80F87F1CBF
:1005C000AF42EADD18E0AAEB0604002712E0494634
:1005D0004046109A00F013F8002C05DBA4EB0B0446
:1005E000029840441FFA80F85444019848441FFA86
:1005F00080F97F1CB742EADD07B0BDE8F08F70B527
:1006000005460E461446701C83B2681C82B2314601
:10061000284600F059FB201200F08AFBE0B200F0FF
:1006200087FB70BD00BFFEE72DE9F84307460D4686
:1006300090461E46DDF820904EF67D7000F015FBCA
:100640002C4608E0A3B2A1B242463846CDF800904D
:10065000FFF778FF641CB442F4DBBDE8F8830000C8
:1006600008B500F0C1FB0121082000F0A1FB012129
:10067000082000F09DFB0220ADF8000010208DF84E
:10068000030003208DF8020069460B48FFF700FEC7
:100690000120ADF8000010208DF8030003208DF834
:1006A000020069460448FFF7F3FD4FF48051024809
:1006B000FFF779FE08BD0000000C014010B50446AC
:1006C000FFF7CEFF00F0EEFA112000F047FB002C00
:1006D0007ED1112000F042FB782000F0BDFCB1205B
:1006E00000F03CFB012000F023FB2C2000F020FB5D
:1006F0002D2000F01DFBB22000F030FB012000F0A7
:1007000017FB2C2000F014FB2D2000F011FBB32070
:1007100000F024FB012000F00BFB2C2000F008FB74
:100720002D2000F005FB012000F002FB2C2000F042
:10073000FFFA2D2000F0FCFAB42000F00FFB072098
:1007400000F0F6FAC02000F009FBA22000F0F0FA59
:10075000022000F0EDFA842000F0EAFAC12000F057
:10076000FDFAC52000F0E4FAC22000F0F7FA0A20F2
:1007700000F0DEFA002000F0DBFAC32000F0EEFA11
:100780008A2000F0D5FA2A2000F0D2FAC42000F026
:10079000E5FA8A2000F0CCFAEE2000F0C9FAC52074
:1007A00000F0DCFA0E2000F0C3FA362000F0D6FA92
:1007B000C02000F0BDFAE02000F0D0FA0F2000F0D9
:1007C000B7FA1A2000F0B4FA0F2000F0B1FA00E0F6
:1007D0008DE0182000F0ACFA2F2000F0A9FA2820B4
:1007E00000F0A6FA202000F0A3FA222000F0A0FAE0
:1007F0001F2000F09DFA1B2000F09AFA232000F041
:1008000097FA372000F094FA002000F091FA0720C0
:1008100000F08EFA022000F08BFA102000F088FA27
:10082000E12000F09BFA0F2000F082FA1B2000F07C
:100830007FFA0F2000F07CFA172000F079FA3320BD
:1008400000F076FA2C2000F073FA292000F070FAFC
:100850002E2000F06DFA302000F06AFA302000F00F
:1008600067FA392000F064FA3F2000F061FA0020B6
:1008700000F05EFA072000F05BFA032000F058FA5F
:10088000102000F055FA2A2000F068FA002000F04D
:100890004FFA002000F04CFA002000F049FA7F20C7
:1008A00000F046FA2B2000F059FA002000F040FA40
:1008B000002000F03DFA002000F03AFA9F2000F0FE
:1008C00037FAF02000F04AFA012000F031FAF62061
:1008D00000F044FA002000F02BFA3A2000F03EFA33
:1008E000052000F025FA292000F038FABCE1012C9F
:1008F0007ED1112000F032FA782000F0ADFBB1205B
:1009000000F02CFA052000F013FA3C2000F010FA59
:100910003C2000F00DFAB22000F020FA052000F093
:1009200007FA3C2000F004FA3C2000F001FAB32062
:1009300000F014FA052000F0FBF93C2000F0F8F973
:100940003C2000F0F5F9052000F0F2F93C2000F021
:10095000EFF93C2000F0ECF9B42000F0FFF903209F
:1009600000F0E6F9C02000F0F9F92E2000F0E0F9DF
:10097000062000F0DDF9042000F0DAF9C12000F0D3
:10098000EDF9C02000F0D4F9C22000F0E7F90D2005
:1009900000F0CEF9002000F0CBF9C32000F0DEF922
:1009A0008D2000F0C5F9EA2000F0C2F9C52000F062
:1009B000D5F9032000F0BCF9C42000F0CFF98D2058
:1009C00000F0B6F9EE2000F0B3F9362000F0C6F9D9
:1009D000C02000F0ADF9E02000F0C0F9032000F0E5
:1009E000A7F91F2000F0A4F9062000F0A1F900E00B
:1009F00063E00B2000F09CF9352000F099F93520D8
:100A000000F096F9302000F093F9332000F090F9CF
:100A1000312000F08DF92E2000F08AF9342000F00A
:100A200087F93E2000F084F9002000F081F90020D1
:100A300000F07EF9012000F07BF9032000F078F946
:100A4000E12000F08BF9032000F072F91E2000F085
:100A50006FF9062000F06CF90B2000F069F93520E1
:100A600000F066F9342000F063F92F2000F060F9FF
:100A7000332000F05DF9322000F05AF92E2000F00A
:100A800057F9352000F054F93E2000F051F90020CC
:100A900000F04EF9012000F04BF9022000F048F977
:100AA000042000F045F9212000F058F9292000F039
:100AB00055F92C2000F052F9D6E0022CFCD111207F
:100AC00000F04CF9642000F0C7FA3A2000F046F933
:100AD000052000F02DF9262000F040F9042000F058
:100AE00027F9F22000F03AF9012000F021F9E02086
:100AF00000F034F93F2000F01BF9252000F018F930
:100B00001C2000F015F91E2000F012F9202000F042
:100B10000FF9122000F00CF92A2000F009F99020BA
:100B200000F006F9242000F003F9112000F000F98C
:100B3000002000F0FDF8002000F0FAF8002000F09E
:100B4000F7F8002000F0F4F8002000F0F1F8E120C0
:100B500000F004F9202000F0EBF8202000F0E8F885
:100B6000202000F0E5F8202000F0E2F8052000F059
:100B7000DFF8002000F0DCF8152000F0D9F8A720FD
:100B800000F0D6F83D2000F0D3F8182000F0D0F89F
:100B9000252000F0CDF82A2000F0CAF82B2000F024
:100BA000C7F82B2000F0C4F83A2000F0C1F8B120BB
:100BB00000F0D4F8082000F0BBF8082000F0B8F8E6
:100BC000B42000F0CBF8072000F0B2F8C02000F00D
:100BD000C5F80A2000F0ACF8022000F0A9F8C12006
:100BE00000F0BCF8022000F0A3F8C52000F0B6F831
:100BF0004F2000F09DF85A2000F09AF8C72000F02E
:100C0000ADF8402000F094F82A2000F0A7F800206A
:100C100000F08EF8002000F08BF8002000F088F83B
:100C20007F2000F085F82B2000F098F8002000F0DD
:100C30007FF8002000F07CF8002000F079F87F2099
:100C400000F076F8362000F089F8C82000F070F83F
:100C5000B72000F083F8002000F06AF8292000F0A7
:100C60007DF82C2000F07AF810BD70B504469F2363
:100C70007F220021084600F027F82C2000F06EF8B3
:100C800000250BE0002606E0201200F051F8E0B24B
:100C900000F04EF8761CA02EF6D36D1C802DF1D3FB
:100CA00070BD000010B501210648FFF77CFB6420F1
:100CB00000F0D2F901210348FFF777FB322000F062
:100CC000CBF910BD000C01402DE9F04104460D4662
:100CD00016461F462A2000F041F8002000F028F8B0
:100CE000E0B200F025F8002000F022F8F0B200F0A9
:100CF0001FF82B2000F032F8002000F019F8E8B2BD
:100D000000F016F8002000F013F8F8B200F010F828
:100D10002C2000F023F8BDE8F08170B504460D46A4
:100D20002B46224629462046FFF7CEFF70BD000025
:100D300010B504464FF480510748FFF734FB0221F9
:100D40000548FFF732FB204600F0D6F84FF48051FB
:100D50000148FFF72AFB10BD000C014010B5044606
:100D60004FF480510748FFF71EFB02210548FFF7AB
:100D70001AFB204600F0C0F84FF480510148FFF7FD
:100D800014FB10BD000C014000BFFEE77047704728
:100D900029B1064AD2690243044BDA6104E0034AEE
:100DA000D2698243014BDA617047000000100240B3
:100DB00029B1064A92690243044B9A6104E0034A4E
:100DC00092698243014B9A61704700000010024013
:100DD00021B1028842F04002028004E002884FF60E
:100DE000BF731A400280704700B587B001218803A5
:100DF000FFF7CEFF01210820FFF7DAFF4FF4805004
:100E0000ADF8040003208DF8060014208DF80700CB
:100E100001A92248FFF73CFA4FF480511F48FFF721
:100E2000C2FA4FF40050ADF8040018208DF8070006
:100E300001A91A48FFF72CFA4FF40040ADF804005E
:100E400018208DF8070001A91448FFF721FA0020A7
:100E5000ADF81400ADF81000ADF80E000720ADF8A5
:100E600018000020ADF80C004FF44040ADF8080029
:100E70000020ADF816004FF48270ADF80A004FF470
:100E80000070ADF8120002A9054800F016F8012123
:100E90000348FFF79DFF07B000BD0000000C0140B4
:100EA000003800400246002013890B400BB101209E
:100EB00000E0002070478181704710B50022028851
:100EC00002F441520B884C8823438C882343CC88FE
:100ED00023430C8923434C8923438C892343CC89A6
:100EE00023431A430280838B4FF2FF742340838392
:100EF0000B8A038210BD000010B5044600BF02211A
:100F00000448FFF7CFFF0028F9D021460148FFF73A
:100F1000D2FF10BD00380040704710B500F002F855
:100F200010BD00000CB5002001900090334800680F
:100F300040F480303149086000BF3048006800F458
:100F4000003000900198401C0190009818B9019859
:100F5000B0F5A06FF1D12948006800F4003010B15D
:100F60000120009001E0002000900098012843D16A
:100F70002348006840F010002149086008460068D6
:100F800020F0030008600846006840F00200086096
:100F90001A48406819494860084640684860084651
:100FA000406840F4806048600846406820F47C1047
:100FB00048600846406840F4E81048600846006809
:100FC00040F08070086000BF0C48006800F00070BE
:100FD0000028F9D00948406820F00300074948601C
:100FE0000846406840F00200486000BF034840687F
:100FF00000F00C000828F9D10CBD000000100240E0
:101000000020024030B50146B1F1807F01D30120BC
:1010100030BD21F07F40401E4FF0E022506150175C
:101020000F22002807DA13071D0E094B00F00F04EA
:10103000241F1D5503E013071C0E064B1C5400BF54
:1010400000204FF0E0229061072010610020DFE7D0
:1010500018ED00E000E400E070B504460C48FFF72E
:10106000D1FF002508E000BF4FF0E020006900F448
:1010700080300028F8D06D1CA542F4D34FF0E0205A
:10108000006920F001004FF0E021086170BD000010
:10109000401901007047000010B51348006840F087
:1010A00001001149086008464068104908400E498F
:1010B0004860084600680E4908400B490860084629
:1010C000006820F4802008600846406820F4FE0094
:1010D00048604FF41F008860FFF71FFF4FF000606B
:1010E0000449086010BD0000001002400000FFF835
:1010F000FFFFF6FE08ED00E000BFFEE702E008C8D3
:10110000121F08C1002AFAD170477047002001E081
:1011100001C1121F002AFBD1704708B50020FFF75C
:10112000CDFAFFF739F84FF4784046233C223221BC
:1011300000901E20FFF778FA002008BD0000000094
:10114000000000000000000000000000001010106F
:1011500010101010101000001010000000006C6C37
:1011600024240000000001000000000000242424CA
:1011700024FE48484848FC909090900000103C5451
:101180009290503814121292547810000000225C91
:1011900094A8481010242A525488000000003048B7
:1011A0004850206E54948C888A74000000003030BF
:1011B00010100000000000000000000000040810F3
:1011C0001020202020202010100804000080402043
:1011D000201010101010102020408000000000008F
:1011E00010543810385410000000000000000010A7
:1011F000101010FE10101010000000000000000081
:10120000000000000000000010102000000000009E
:10121000000000FE000000000000000000000000D0
:101220000000000000000000101000000000040496
:101230000808101020204040808000000000384442
:101240008282828282828282443800000000107092
:101250001010101010101010107C00000000384406
:10126000828204081020408284FC00000000384480
:101270008202043804020282443800000000040C98
:10128000141424244444FE04040E00000000FC80D6
:101290008080B8C4820202828478000000003C4250
:1012A0008280B8C4828282824438000000007E427C
:1012B00082040408080810101010000000003844D0
:1012C00082824438448282824438000000003844DC
:1012D00082828282463A0282443800000000000086
:1012E00010100000000010100000000000000000BE
:1012F000101000000000001010200000000000008E
:101300000618608060180600000000000000000061
:101310000000FE0000FE00000000000000000000D1
:10132000C0300C020C30C0000000000000384482C5
:101330008202040810101000101000000000384451
:10134000829AAAAAAAAAAA9680423C00000010107B
:101350001028282844447C4444EE00000000FC424D
:101360004242427C4242424242FC000000003C4475
:101370008280808080808282443800000000F844AF
:10138000424242424242424244F800000000FC44D1
:101390004240447C4440404244FC00000000FC4485
:1013A0004240447C4440404040F000000000344C47
:1013B000828080808E8484844C3400000000EE445F
:1013C0004444447C4444444444EE000000007C1007
:1013D0001010101010101010107C000000003E08BB
:1013E0000808080808080888887000000000EE4413
:1013F000484850605048484444EE00000000E04037
:10140000404040404040404244FC00000000C64490
:101410006C6C6C545454444444EE00000000CE44C0
:1014200064646454544C4C4C44E400000000384460
:101430008282828282828282443800000000F844E4
:10144000424242447840404040E0000000003844BE
:1014500082828282828282BA443C02000000F0488A
:10146000444444487048444444E6000000003C447E
:10147000828040300C0202824478000000007C54DC
:101480009210101010101010103800000000EE44E0
:101490004444444444444444443800000000EE447E
:1014A0004444442828282810101000000000EE446E
:1014B0005454545454542828282800000000EE4462
:1014C000442828101028284444EE00000000EE4470
:1014D00044282828101010101038000000007E4406
:1014E000840808102020408284FC0000001C10109A
:1014F000101010101010101010101C000000EE44FE
:101500005454FE5454542828282800000070101009
:1015100010101010101010101010700000304884BF
:1015200000000000000000000000000000000000BB
:1015300000000000000000000000FE00004020004D
:10154000000000000000000000000000000000009B
:1015500000007884047C84848C7600000000C04005
:10156000404058644242424264580000000000007B
:1015700000003844808080804438000000000C0463
:101580000404344C848484844C3600000000000041
:101590000000788484FC8080847800000000182497
:1015A0002020F820202020202070000000000000D3
:1015B00000003A444478807C82827C000000C04075
:1015C000404058644444444444EE0000000010107D
:1015D0000000301010101010103800000000101023
:1015E0000000301010101010109060000000C0407B
:1015F00040405C485060504844EE0000000030100D
:101600001010101110101010103900000000000010
:101610000000ACD29292929292D60000000000009C
:10162000000058E44444444444EE0000000000003C
:1016300000003844828282824438000000000000AA
:101640000000D864424242645840E00000000000BC
:101650000000364C8484844C34040E0000000000EA
:1016600000006C30202020202070000000000000CE
:10167000000078888460188444780000000000200E
:101680002020F82020202020241800000000000046
:101690000000C64242424242463A000000000000BA
:1016A0000000EE444428282810100000000000002C
:1016B0000000EE4444545428282800000000000094
:1016C0000000EE442810102844EE00000000000046
:1016D0000000EE444428281010A0C00000000000C4
:1016E00000007E448810204284FC0000000C101092
:1016F000101010601010101010100C0000101010BE
:1017000010101010101010101010100000C0202029
:1017100020202018202020202020C00000000000D1
:10172000000000728C0000000000000000000000BB
:1017300000001FE000003FF000003FF000001FE04D
:10174000000180060003C00F0003C00F0003C00F9C
:101750000003C00F0003C00F0003C00F0003C00F41
:101760000003C00F000300030000000000000000A1
:1017700000000000000300030003C00F0003C00FBF
:101780000003C00F0003C00F0003C00F0003C00F11
:101790000003C00F0003C00F0001800600001FE01F
:1017A00000003FF000003FF000001FE000000000DC
:1017B00000000000000000800000018000000380A5
:1017C00000000780000007800000078000000780FD
:1017D00000000780000007800000078000000780ED
:1017E00000000780000001800000000000000000F1
:1017F000000000000000018000000780000007805A
:1018000000000780000007800000078000000780BC
:1018100000000780000007800000078000000380B0
:1018200000000180000000800000000000000000B7
:1018300000001FE000003FF00000FFF00001FFE0AB
:10184000000000060000000F0000000F0000000F65
:101850000000000F0000000F0000000F0000000F4C
:101860000000000F00001FE300007FF800007FF879
:1018700000001FE0000300000003C0000003C000E0
:101880000003C0000003C0000003C0000003C0004C
:101890000003C0000003C0000001800000001FF032
:1018A00000003FF800003FFC00001FFE00000000A9
:1018B0000003FF800001FFC00000FFC000007F8028
:1018C000000000180000003C0000003C0000003C4C
:1018D0000000003C0000003C0000003C0000003C18
:1018E0000000003C00007F8C0001FFE00001FFF0E1
:1018F00000007F800000000C0000003C0000003C65
:101900000000003C0000003C0000003C0000003CE7
:101910000000003C0000003C0000001800007F8038
:101920000000FFC00001FFC00003FF8000000000B6
:101930000000000000020001000300030003800714
:101940000003C00F0003C00F0003C00F0003C00F4F
:101950000003C00F0003C00F0003C00F0003C00F3F
:101960000003C00F00031FE300007FF800007FFCAE
:1019700000001FE0000000030000000F0000000F47
:101980000000000F0000000F0000000F0000000F1B
:101990000000000F0000000F0000000F0000000713
:1019A0000000000300000001000000000000000033
:1019B00000001FFC00003FF800003FF000001FE0A7
:1019C000000180000003C0000003C0000003C0004D
:1019D0000003C0000003C0000003C0000003C000FB
:1019E0000003C00000031FE000007FF800007FF844
:1019F00000001FE0000000030000000F0000000FC7
:101A00000000000F0000000F0000000F0000000F9A
:101A10000000000F0000000F0000000600003FE083
:101A200000007FF00000FFF00001FFE00000000078
:101A300000001FFC00003FF800003FF000001FE026
:101A4000000180000003C0000003C0000003C000CC
:101A50000003C0000003C0000003C0000003C0007A
:101A60000003C00000031FE000007FF800007FFCBF
:101A700000001FE0000300030003C00F0003C00FBD
:101A80000003C00F0003C00F0003C00F0003C00F0E
:101A90000003C00F0003C00F0001800600001FE01C
:101AA00000003FF000003FF000001FE000000000D9
:101AB0000007FFE00003FFC00001FF880000FF18DF
:101AC0000000003800000078000000780000007876
:101AD0000000007800000078000000780000007826
:101AE0000000007800000018000000000000000066
:101AF00000000000000000180000007800000078DE
:101B000000000078000000780000007800000078F5
:101B10000000007800000078000000780000003825
:101B20000000001800000008000000000000000095
:101B300000001FE000003FF000003FF000001FE049
:101B4000000180060003C00F0003C00F0003C00F98
:101B50000003C00F0003C00F0003C00F0003C00F3D
:101B60000003C00F00031FE300007FF800007FFCAC
:101B700000001FE0000300030003C00F0003C00FBC
:101B80000003C00F0003C00F0003C00F0003C00F0D
:101B90000003C00F0003C00F0001800600001FE01B
:101BA00000003FF000003FF000001FE000000000D8
:101BB00000001FE000003FF000003FF000001FE0C9
:101BC000000180060003C00F0003C00F0003C00F18
:101BD0000003C00F0003C00F0003C00F0003C00FBD
:101BE0000003C00F00031FE300007FF800007FFC2C
:101BF00000001FE0000000030000000F0000000FC5
:101C00000000000F0000000F0000000F0000000F98
:101C10000000000F0000000F0000000600001FE0A1
:101C200000003FF000007FF00000FFE00000000037
:101C300000000000000000000000000000000000A4
:101C40000000000000000000000000000000000094
:101C50000000000000000000000000000000000084
:101C60000000000000000000000000000000000074
:101C70000000000000000000000000000000000064
:101C80000000780000007800000078000000780074
:101C90000000780000007800000000000000000054
:101CA0000000000000000000000000000000000034
:101CB0000000000000000000000000000000000024
:101CC000000000000000000000000000000007000D
:101CD00000000F8000000F8000000F800000070050
:101CE00000000000000000000000000000000000F4
:101CF00000000000000000000000070000000F804E
:101D000000000F8000000F800000070000000000AE
:101D100000000000000000000000000000000000C3
:101D200000000000000000000000000000000000B3
:101D30000000000000000000000000000007C006D6
:101D4000000FE0060000000C0030181800301818D2
:101D5000003018300030183000301860003008C0F3
:101D60000007C0C0000FE080000000000000000F6E
:101D7000E0000607C000063018000C3018000C30D8
:101D8000180018301800303018003030180060008B
:101D90000000C00FE000C007C0000000000000000D
:101DA0000000000000000000000000000000000033
:101DB0000000000000000000000000000000000023
:101DC00000000000000700E0000887FC00088E0308
:101DD00000089801800718008000300000003000E3
:101DE0000000700000006000000060000000600063
:101DF0000000600000006000000070000000300083
:101E000000003000000038000000180100000C0342
:101E1000000007FC000001F00000000000000000CE
:101E200000000000000000000000000000000000B2
:101E300000000000000000000000000000000000A2
:101E40000000000000000000000000000000000092
:101E50000000000000000000000000000000000082
:101E6000000000000000000000003FF000007FF0D4
:101E700000007FE00000FFC0000000000000000044
:101E80000000000000000000000000000000000052
:101E90000000000000000000000000000000000042
:101EA0000000000000000000000000000000B5E796
:101EB0000200020002007FF0421042107FF0421048
:101EC00042107FF042000208020801F80000000002
:101ED000D7D37FF000200040008001000200FFF80F
:101EE0000200020002000200020002000E000000D8
:101EF0000000C8AB0100010002800440082010105F
:101F00002FE8C106010001001FF0010001000100DF
:101F10007FFC0000B6AF004000407C40004001FC68
:101F20000044FE4420442044208448844484FD042A
:101F3000450402280410BCBC10201020102013FE01
:101F4000FC201020102015FC18843088D048105038
:101F50001020105051882606CAF5010001200110FA
:101F600001107FFC03800540054009201110210865
:101F700041040102010001000100D2BA008040408A
:101F800027F8114001408278424816A81AD0235001
:101F9000222042204250028800000000BEA73FE0FD
:101FA00020203FE020203FE00000FDF88508850864
:101FB000FDF885088508FDF8850800000000B2E2FC
:101FC00000084F8828880AA88AA84AA80AA82AA828
:101FD0002AA8422845088488888810380000000014
:101FE000CAD44050204820400FF80040E04027402D
:101FF0002240224022202A2833A82E180008000060
:102000000000B3CC00001BF0E210221023F0F80017
:10201000200033F068806080A3F02080208027F8C3
:1020200000000000D0F2020001003FF820002FF075
:102030002020224021803FF820882090408040804E
:10204000838000000000D1D5200010F87E2044409D
:1020500028F87E8848A850A864A848A872A8845088
:102060001888610800000000C9AB100010003FE0B4
:10207000404080807FF04210421042107FF04000CC
:10208000400840083FF800000000CCEE20802FF808
:10209000208027F0F41027F0241027F0241027F0D8
:1020A0003410CFF80220041000000000B3E4040054
:1020B0000200FFF80800104020207FF00890088000
:1020C0000880088010882088C07800000000CEC4F6
:1020D000040002000200FFF8104010400880088051
:1020E00005000200050008803060C01800000000F4
:1020F000D7D604000200FFF8800880083FC00080A7
:1021000001000200FFF80200020002000E000000C1
:102110000000CFD43FE0202020203FE020202020DE
:102120003FE008804890289028A008800880FFF8A9
:1021300000000000CABE00003FE0000000000000F8
:10214000FFF802001240122022104208820802000A
:102150000E0000000000CDBC7FF84008440847C8CE
:102160004848548843084CC8733840884C08430892
:1021700040887FF800000000C6AC008020802080EE
:1021800020803FF02000200020003FC02040204061
:1021900020404040804000000000B4A5204038406E
:1021A000484091F07D50555055507D5055F0544069
:1021B0007C40545057F88C0800000000C3FE2220D9
:1021C000222027F8FA2027F0241027F03410E7F017
:1021D00020802FF821402220EC1800000000CAE4E3
:1021E00040804140F22044108BE8A000F78824A8EA
:1021F00027A834A8E7A824A8248825B80000000050
:10220000C8EB0800040004000200020005000500FD
:1022100008800880104010402020401080080000F6
:102220000000C8AB0200020005000880104020201A
:10223000DFD8020002001FC0020002000200FFF807
:1022400000000000B3CC00001BF0E210221023F0CD
:10225000F800200033F068806080A3F020802080A8
:1022600027F800000000BCBC208020802080F7F010
:102270002080208027E03220E22021402080214061
:102280002220EC1800000000CAF5020002400220E3
:102290000200FFF807000A800A8012402220421044
:1022A00082080200020000000000D6A7020002001F
:1022B000FFF8020002007FE01020104008800500B7
:1022C0000200050018C0E03800000000B3D62080EE
:1022D000208023F0F880208027F828203020E7F89D
:1022E0002020222021202020E0E000000000D7A8AC
:1022F000020002007FF004000400FFF80800100054
:102300003FE0002000401C8003000080000000002F
:10231000D7A201004080200017F00080808040801C
:10232000008017F010802080208040804FF800004F
:102330000000C5FA204024402440F448245027607F
:1023400024403440E4402440244025482648E438D2
:1023500000000000B7A202002220221044007FF8F3
:10236000040008000FE0142024404280810006C0D1
:10237000383800000000B3C900A0009000807FF84A
:10238000408040907C90449044A044A0444858A889
:102390004118820800000000B9A601000100F90000
:1023A00023F0211021102110211021103910C2100A
:1023B00002100410086000000000D2C600000020D7
:1023C00000780CE47904516810307E6019981A3C4A
:1023D0002FE448E40838003000600000D1A100007C
:1023E0000120012003FC62203420042003FC24008F
:1023F00021B021202220323E18000FE00000D4F14D
:102400000000000010FC1304110C3DF8703E10D0C9
:1024100015907CF0503E18101BFE0230002000008A
:10242000CFEE0000000003FE00607C4012FC1104AF
:102430001106113611241F44794400C0009C018606
:102440000000C4BF000000000FE03C18200820047A
:102450003E04600460047E046004200C20081FF029
:1024600001800000B6CC0000080011FC103E3EF8D0
:102470002D8C2904490409043E8C50FC10881EC888
:1024800011FC100E0000B0B400000040006012FE0D
:1024900013023A427F4410C41BFE3C9871901130E5
:1024A00011A00078004C0000C8B70000004000F800
:1024B00078C41F8C313821EC2126413A7DE2272255
:1024C00025FA3D26012401040000B6A80000010001
:1024D00001705FFC700420042FF801001100113816
:1024E00021C431003F0063E040380000B3A4000085
:1024F00000000818086008C00B001E00181C7FF0C0
:102500001000118010E01838098E0F000000B0B4E0
:1025100000000040006012FE13023A427F4410C4E3
:102520001BFE3C987190113011A00078004C000007
:10253000B7B50000000007F80600240014F8078C67
:1025400004042408261825F0647C64C220801FC07F
:102550000000BBD8000000001FF030182008278CB6
:102560002C44284428442CC427842004300C1FF811
:1025700003800000000000000000000000000000D8
:10258000000000000000000000000000000000004B
:10259000000000000000B4BF0000000000000201C5
:1025A00000063FC00C3FE018030010020033366005
:1025B0003726203E66301C643018642031FEE03F30
:1025C0001FC01C0C00000C000704003E07F00001B7
:1025D000C00000000000000000000000000000003B
:1025E000C9AB00000000000001FE0003E300070388
:1025F000000C03001C3F003BFFC03F30600C30204C
:102600000C30200C10200C10600FFFC0083F000899
:1026100000000800600E3FE007FC00000000000022
:1026200000000000000000000000CCEE00000000F0
:10263000000000030000FFE00C07F00C06000CFF98
:10264000803FF0E01FC0600CFE300CCC3004F8304E
:1026500004FF2004C0201FFE603EC06001FFF001A7
:10266000FFF000606000400000000000000000007B
:1026700000000000B3E400000000000000200000A3
:10268000300007FFF03FFFE00300000601800C016F
:10269000800801C01807E00FFE7007E00002060086
:1026A0000604000404000404000C06700C07E0009B
:1026B0000000000000000000000000000000B2E286
:1026C00000000000000000003039FC301FCC300753
:1026D00006B00F06F01907B03137B03136F01F27BA
:1026E000F00167F001E5F001E1F00041F00CF8B015
:1026F0003CD830008C30008030000000000000002A
:102700000000000000000000CAD40000000000002B
:102710000803600C03700C0330003FE0003F8008AA
:1027200001003C0180047F80047D800C00800C103F
:10273000C00C10C00C18400C1C600F7E600670307E
:102740000000300000000000000000000000000059
:102750000000CEC400000000C00000E000007000D7
:1027600001FFE01FFFC01801000003000006000089
:102770000E00001C000E180007300001E00000F001
:102780000000FC00018F000303C00201E000000014
:10279000000000000000000000000000D7D600008C
:1027A00000000000002000003F0031FFE03FC0209B
:1027B00038003030FE2033C660100200000C0000EC
:1027C0001800001800000C0007FFE03FFFE00004C5
:1027D00000000C00000C00000000000000000000E1
:1027E000000000000000CFD400000000000007FF40
:1027F000000F03C00C00401FF86018006008004084
:102800000E01C007FF0000000001840001840019D0
:1028100087800F8CE0078C2000CC0003FFE01FFFB7
:10282000C0000000000000000000000000000000E8
:10283000CABE0000000000000E00001FFFC0007FA5
:10284000E0000000000000000000000000003FC0A9
:102850003FFFE00030000030000030000613000CA5
:1028600013C00C18F0181800181800000000000021
:1028700000000000000000000000CDBC00000000CF
:10288000000007FF000F03801CC0C019FC6011C6C8
:102890006033062033E63036FF30301FF0307030C2
:1028A00030FC30339F3036002010E060187C400E42
:1028B00001C003FF0000380000000000000000001D
:1028C00000000000C6AC000000000000081800185E
:1028D0000800180800180800180C201FFFF01FF847
:1028E0000018000010000010F8001FFE001E03007A
:1028F0001003001003001003001003001802000072
:102900000000000000000000000000000000CFD424
:1029100000000000000007FF000F03C00C00401F74
:10292000F8601800600800400E01C007FF000000BA
:10293000000184000184001987800F8CE0078C203F
:1029400000CC0003FFE01FFFC000000000000000FB
:102950000000000000000000CABE000000000000EF
:102960000E00001FFFC0007FE0000000000000001C
:102970000000000000003FC03FFFE00030000030DA
:10298000000030000613000C13C00C18F0181800DB
:102990001818000000000000000000000000000007
:1029A0000000B4A50000000000000601800FC180F7
:1029B0001E6180304FC020CFE0078D303FC93033DB
:1029C00079303379303FFB3037FF203267E03FE327
:1029D000803FE3C03263603267F0304FB0000000E8
:1029E000000000000000000000000000C3FE000026
:1029F000000000000030C000FFF00C79C00C1F8008
:102A00000C7FE03FE0600CC0300CFC3004C03007AD
:102A1000C0301E60603C3FC0041C00047FE000FF2B
:102A2000E00030C000606000000000000000000016
:102A3000000000000000CAE40000000000000C03D9
:102A4000800C0FC0081C703F70001F9FC0101FC07B
:102A5000100000367C3017E6301FE3B0067FB0026E
:102A600077F007E3F03F7FF01336F00326300326BC
:102A70003000000000000000000000000000000026
:102A8000C8EB00000000000006000003800001C049
:102A90000000E00000700000780000CC0000C600DC
:102AA0000183000301800700C00600E00C007018DD
:102AB000003018000030000000000000000000009E
:102AC0000000000000000000000000000000000006
:102AD00000000000000000000000000000000000F6
:102AE00000000000000000000000000000000000E6
:102AF00000000000000000000000000000000000D6
:102B000000000000000000000000000000000000C5
:102B100000000000242B000800000020000400003A
:042B20000C1100088C
:0400000508000131BD
:00000001FF
